{
  "_format": "hh-sol-artifact-1",
  "contractName": "ChessPlayCore",
  "sourceName": "contracts/ChessPlayCore.sol",
  "abi": [
    {
      "inputs": [],
      "stateMutability": "nonpayable",
      "type": "constructor"
    },
    {
      "anonymous": false,
      "inputs": [
        {
          "indexed": true,
          "internalType": "address",
          "name": "owner",
          "type": "address"
        },
        {
          "indexed": true,
          "internalType": "address",
          "name": "approved",
          "type": "address"
        },
        {
          "indexed": true,
          "internalType": "uint256",
          "name": "tokenId",
          "type": "uint256"
        }
      ],
      "name": "Approval",
      "type": "event"
    },
    {
      "anonymous": false,
      "inputs": [
        {
          "indexed": true,
          "internalType": "address",
          "name": "owner",
          "type": "address"
        },
        {
          "indexed": true,
          "internalType": "address",
          "name": "operator",
          "type": "address"
        },
        {
          "indexed": false,
          "internalType": "bool",
          "name": "approved",
          "type": "bool"
        }
      ],
      "name": "ApprovalForAll",
      "type": "event"
    },
    {
      "anonymous": false,
      "inputs": [
        {
          "indexed": false,
          "internalType": "uint256",
          "name": "_fromTokenId",
          "type": "uint256"
        },
        {
          "indexed": false,
          "internalType": "uint256",
          "name": "_toTokenId",
          "type": "uint256"
        }
      ],
      "name": "BatchMetadataUpdate",
      "type": "event"
    },
    {
      "anonymous": false,
      "inputs": [
        {
          "indexed": true,
          "internalType": "string",
          "name": "_matchId",
          "type": "string"
        },
        {
          "indexed": true,
          "internalType": "address",
          "name": "_matchCreator",
          "type": "address"
        },
        {
          "indexed": false,
          "internalType": "uint256",
          "name": "_stakeAmount",
          "type": "uint256"
        }
      ],
      "name": "MatchCreated",
      "type": "event"
    },
    {
      "anonymous": false,
      "inputs": [
        {
          "indexed": true,
          "internalType": "string",
          "name": "_matchId",
          "type": "string"
        },
        {
          "indexed": true,
          "internalType": "address",
          "name": "_matchCreator",
          "type": "address"
        },
        {
          "indexed": true,
          "internalType": "address",
          "name": "_matchJoiner",
          "type": "address"
        },
        {
          "indexed": false,
          "internalType": "enum IChessPlayCore.MatchResult",
          "name": "_gameResult",
          "type": "uint8"
        },
        {
          "indexed": false,
          "internalType": "string",
          "name": "_matchDataURI",
          "type": "string"
        }
      ],
      "name": "MatchEnded",
      "type": "event"
    },
    {
      "anonymous": false,
      "inputs": [
        {
          "indexed": true,
          "internalType": "string",
          "name": "_matchId",
          "type": "string"
        },
        {
          "indexed": true,
          "internalType": "address",
          "name": "_mathJoiner",
          "type": "address"
        }
      ],
      "name": "MatchStarted",
      "type": "event"
    },
    {
      "anonymous": false,
      "inputs": [
        {
          "indexed": false,
          "internalType": "uint256",
          "name": "_tokenId",
          "type": "uint256"
        }
      ],
      "name": "MetadataUpdate",
      "type": "event"
    },
    {
      "anonymous": false,
      "inputs": [
        {
          "indexed": true,
          "internalType": "address",
          "name": "previousOwner",
          "type": "address"
        },
        {
          "indexed": true,
          "internalType": "address",
          "name": "newOwner",
          "type": "address"
        }
      ],
      "name": "OwnershipTransferred",
      "type": "event"
    },
    {
      "anonymous": false,
      "inputs": [
        {
          "indexed": true,
          "internalType": "address",
          "name": "from",
          "type": "address"
        },
        {
          "indexed": true,
          "internalType": "address",
          "name": "to",
          "type": "address"
        },
        {
          "indexed": true,
          "internalType": "uint256",
          "name": "tokenId",
          "type": "uint256"
        }
      ],
      "name": "Transfer",
      "type": "event"
    },
    {
      "inputs": [
        {
          "internalType": "address",
          "name": "to",
          "type": "address"
        },
        {
          "internalType": "uint256",
          "name": "tokenId",
          "type": "uint256"
        }
      ],
      "name": "approve",
      "outputs": [],
      "stateMutability": "nonpayable",
      "type": "function"
    },
    {
      "inputs": [
        {
          "internalType": "address",
          "name": "owner",
          "type": "address"
        }
      ],
      "name": "balanceOf",
      "outputs": [
        {
          "internalType": "uint256",
          "name": "",
          "type": "uint256"
        }
      ],
      "stateMutability": "view",
      "type": "function"
    },
    {
      "inputs": [
        {
          "internalType": "string",
          "name": "_matchId",
          "type": "string"
        },
        {
          "internalType": "address",
          "name": "_matchCreator",
          "type": "address"
        },
        {
          "internalType": "uint256",
          "name": "_stakedAmount",
          "type": "uint256"
        }
      ],
      "name": "createMatch",
      "outputs": [],
      "stateMutability": "payable",
      "type": "function"
    },
    {
      "inputs": [
        {
          "internalType": "string",
          "name": "_matchId",
          "type": "string"
        },
        {
          "internalType": "string",
          "name": "_matchURI",
          "type": "string"
        },
        {
          "internalType": "string",
          "name": "_matchNFTURI",
          "type": "string"
        },
        {
          "internalType": "enum IChessPlayCore.MatchResult",
          "name": "_gameResult",
          "type": "uint8"
        }
      ],
      "name": "endMatch",
      "outputs": [],
      "stateMutability": "nonpayable",
      "type": "function"
    },
    {
      "inputs": [
        {
          "internalType": "uint256",
          "name": "tokenId",
          "type": "uint256"
        }
      ],
      "name": "getApproved",
      "outputs": [
        {
          "internalType": "address",
          "name": "",
          "type": "address"
        }
      ],
      "stateMutability": "view",
      "type": "function"
    },
    {
      "inputs": [
        {
          "internalType": "address",
          "name": "owner",
          "type": "address"
        },
        {
          "internalType": "address",
          "name": "operator",
          "type": "address"
        }
      ],
      "name": "isApprovedForAll",
      "outputs": [
        {
          "internalType": "bool",
          "name": "",
          "type": "bool"
        }
      ],
      "stateMutability": "view",
      "type": "function"
    },
    {
      "inputs": [
        {
          "internalType": "string",
          "name": "_matchId",
          "type": "string"
        },
        {
          "internalType": "address",
          "name": "_matchJoiner",
          "type": "address"
        }
      ],
      "name": "joinMatch",
      "outputs": [],
      "stateMutability": "payable",
      "type": "function"
    },
    {
      "inputs": [
        {
          "internalType": "string",
          "name": "",
          "type": "string"
        }
      ],
      "name": "matchUserDetails",
      "outputs": [
        {
          "internalType": "enum IChessPlayCore.MatchStatus",
          "name": "_matchStatus",
          "type": "uint8"
        },
        {
          "internalType": "string",
          "name": "_matchId",
          "type": "string"
        },
        {
          "internalType": "address",
          "name": "_matchCreator",
          "type": "address"
        },
        {
          "internalType": "address",
          "name": "_matchJoiner",
          "type": "address"
        },
        {
          "internalType": "uint256",
          "name": "_stakedAmount",
          "type": "uint256"
        },
        {
          "internalType": "enum IChessPlayCore.MatchResult",
          "name": "_gameResult",
          "type": "uint8"
        },
        {
          "internalType": "string",
          "name": "_matchURI",
          "type": "string"
        },
        {
          "internalType": "uint256",
          "name": "_nftId",
          "type": "uint256"
        },
        {
          "internalType": "uint256",
          "name": "_createTime",
          "type": "uint256"
        },
        {
          "internalType": "uint256",
          "name": "_startTime",
          "type": "uint256"
        },
        {
          "internalType": "uint256",
          "name": "_endTime",
          "type": "uint256"
        }
      ],
      "stateMutability": "view",
      "type": "function"
    },
    {
      "inputs": [],
      "name": "name",
      "outputs": [
        {
          "internalType": "string",
          "name": "",
          "type": "string"
        }
      ],
      "stateMutability": "view",
      "type": "function"
    },
    {
      "inputs": [],
      "name": "owner",
      "outputs": [
        {
          "internalType": "address",
          "name": "",
          "type": "address"
        }
      ],
      "stateMutability": "view",
      "type": "function"
    },
    {
      "inputs": [
        {
          "internalType": "uint256",
          "name": "tokenId",
          "type": "uint256"
        }
      ],
      "name": "ownerOf",
      "outputs": [
        {
          "internalType": "address",
          "name": "",
          "type": "address"
        }
      ],
      "stateMutability": "view",
      "type": "function"
    },
    {
      "inputs": [],
      "name": "renounceOwnership",
      "outputs": [],
      "stateMutability": "nonpayable",
      "type": "function"
    },
    {
      "inputs": [
        {
          "internalType": "address",
          "name": "from",
          "type": "address"
        },
        {
          "internalType": "address",
          "name": "to",
          "type": "address"
        },
        {
          "internalType": "uint256",
          "name": "tokenId",
          "type": "uint256"
        }
      ],
      "name": "safeTransferFrom",
      "outputs": [],
      "stateMutability": "nonpayable",
      "type": "function"
    },
    {
      "inputs": [
        {
          "internalType": "address",
          "name": "from",
          "type": "address"
        },
        {
          "internalType": "address",
          "name": "to",
          "type": "address"
        },
        {
          "internalType": "uint256",
          "name": "tokenId",
          "type": "uint256"
        },
        {
          "internalType": "bytes",
          "name": "data",
          "type": "bytes"
        }
      ],
      "name": "safeTransferFrom",
      "outputs": [],
      "stateMutability": "nonpayable",
      "type": "function"
    },
    {
      "inputs": [
        {
          "internalType": "address",
          "name": "operator",
          "type": "address"
        },
        {
          "internalType": "bool",
          "name": "approved",
          "type": "bool"
        }
      ],
      "name": "setApprovalForAll",
      "outputs": [],
      "stateMutability": "nonpayable",
      "type": "function"
    },
    {
      "inputs": [
        {
          "internalType": "bytes4",
          "name": "_interfaceId",
          "type": "bytes4"
        }
      ],
      "name": "supportsInterface",
      "outputs": [
        {
          "internalType": "bool",
          "name": "",
          "type": "bool"
        }
      ],
      "stateMutability": "view",
      "type": "function"
    },
    {
      "inputs": [],
      "name": "symbol",
      "outputs": [
        {
          "internalType": "string",
          "name": "",
          "type": "string"
        }
      ],
      "stateMutability": "view",
      "type": "function"
    },
    {
      "inputs": [
        {
          "internalType": "uint256",
          "name": "index",
          "type": "uint256"
        }
      ],
      "name": "tokenByIndex",
      "outputs": [
        {
          "internalType": "uint256",
          "name": "",
          "type": "uint256"
        }
      ],
      "stateMutability": "view",
      "type": "function"
    },
    {
      "inputs": [
        {
          "internalType": "address",
          "name": "owner",
          "type": "address"
        },
        {
          "internalType": "uint256",
          "name": "index",
          "type": "uint256"
        }
      ],
      "name": "tokenOfOwnerByIndex",
      "outputs": [
        {
          "internalType": "uint256",
          "name": "",
          "type": "uint256"
        }
      ],
      "stateMutability": "view",
      "type": "function"
    },
    {
      "inputs": [
        {
          "internalType": "uint256",
          "name": "_tokenId",
          "type": "uint256"
        }
      ],
      "name": "tokenURI",
      "outputs": [
        {
          "internalType": "string",
          "name": "",
          "type": "string"
        }
      ],
      "stateMutability": "view",
      "type": "function"
    },
    {
      "inputs": [],
      "name": "totalSupply",
      "outputs": [
        {
          "internalType": "uint256",
          "name": "",
          "type": "uint256"
        }
      ],
      "stateMutability": "view",
      "type": "function"
    },
    {
      "inputs": [
        {
          "internalType": "address",
          "name": "from",
          "type": "address"
        },
        {
          "internalType": "address",
          "name": "to",
          "type": "address"
        },
        {
          "internalType": "uint256",
          "name": "tokenId",
          "type": "uint256"
        }
      ],
      "name": "transferFrom",
      "outputs": [],
      "stateMutability": "nonpayable",
      "type": "function"
    },
    {
      "inputs": [
        {
          "internalType": "address",
          "name": "newOwner",
          "type": "address"
        }
      ],
      "name": "transferOwnership",
      "outputs": [],
      "stateMutability": "nonpayable",
      "type": "function"
    },
    {
      "inputs": [
        {
          "internalType": "address",
          "name": "_owner",
          "type": "address"
        }
      ],
      "name": "walletOfOwner",
      "outputs": [
        {
          "internalType": "uint256[]",
          "name": "",
          "type": "uint256[]"
        }
      ],
      "stateMutability": "view",
      "type": "function"
    },
    {
      "inputs": [
        {
          "internalType": "address",
          "name": "_owner",
          "type": "address"
        }
      ],
      "name": "walletOfOwnerURIs",
      "outputs": [
        {
          "internalType": "string[]",
          "name": "",
          "type": "string[]"
        }
      ],
      "stateMutability": "view",
      "type": "function"
    }
  ],
  "bytecode": "0x60806040523480156200001157600080fd5b506040518060400160405280600c81526020017f4368657373506c61794e465400000000000000000000000000000000000000008152506040518060400160405280600581526020017f43504e46540000000000000000000000000000000000000000000000000000008152506200009e62000092620000e060201b60201c565b620000e860201b60201c565b8160019080519060200190620000b6929190620001ac565b508060029080519060200190620000cf929190620001ac565b5050506001600781905550620002c1565b600033905090565b60008060009054906101000a900473ffffffffffffffffffffffffffffffffffffffff169050816000806101000a81548173ffffffffffffffffffffffffffffffffffffffff021916908373ffffffffffffffffffffffffffffffffffffffff1602179055508173ffffffffffffffffffffffffffffffffffffffff168173ffffffffffffffffffffffffffffffffffffffff167f8be0079c531659141344cd1fd0a4f28419497f9722a3daafe3b4186f6b6457e060405160405180910390a35050565b828054620001ba906200028b565b90600052602060002090601f016020900481019282620001de57600085556200022a565b82601f10620001f957805160ff19168380011785556200022a565b828001600101855582156200022a579182015b82811115620002295782518255916020019190600101906200020c565b5b5090506200023991906200023d565b5090565b5b80821115620002585760008160009055506001016200023e565b5090565b7f4e487b7100000000000000000000000000000000000000000000000000000000600052602260045260246000fd5b60006002820490506001821680620002a457607f821691505b60208210811415620002bb57620002ba6200025c565b5b50919050565b6150b580620002d16000396000f3fe6080604052600436106101665760003560e01c80635deca751116100d157806395d89b411161008a578063c8175c6b11610064578063c8175c6b1461056f578063c87b56dd1461058b578063e985e9c5146105c8578063f2fde38b1461060557610166565b806395d89b41146104f2578063a22cb4651461051d578063b88d4fde1461054657610166565b80635deca751146103d35780636352211e146103ef57806369e6746c1461042c57806370a0823114610473578063715018a6146104b05780638da5cb5b146104c757610166565b80632f745c59116101235780632f745c591461028d57806330482105146102ca5780633c3a690d1461030757806342842e0e14610330578063438b6300146103595780634f6ccce71461039657610166565b806301ffc9a71461016b57806306fdde03146101a8578063081812fc146101d3578063095ea7b31461021057806318160ddd1461023957806323b872dd14610264575b600080fd5b34801561017757600080fd5b50610192600480360381019061018d9190613505565b61062e565b60405161019f919061354d565b60405180910390f35b3480156101b457600080fd5b506101bd610640565b6040516101ca9190613601565b60405180910390f35b3480156101df57600080fd5b506101fa60048036038101906101f59190613659565b6106d2565b60405161020791906136c7565b60405180910390f35b34801561021c57600080fd5b506102376004803603810190610232919061370e565b610718565b005b34801561024557600080fd5b5061024e610830565b60405161025b919061375d565b60405180910390f35b34801561027057600080fd5b5061028b60048036038101906102869190613778565b61083d565b005b34801561029957600080fd5b506102b460048036038101906102af919061370e565b61089d565b6040516102c1919061375d565b60405180910390f35b3480156102d657600080fd5b506102f160048036038101906102ec91906137cb565b610942565b6040516102fe9190613904565b60405180910390f35b34801561031357600080fd5b5061032e60048036038101906103299190613a80565b6109fc565b005b34801561033c57600080fd5b5061035760048036038101906103529190613778565b611042565b005b34801561036557600080fd5b50610380600480360381019061037b91906137cb565b611062565b60405161038d9190613bf9565b60405180910390f35b3480156103a257600080fd5b506103bd60048036038101906103b89190613659565b611110565b6040516103ca919061375d565b60405180910390f35b6103ed60048036038101906103e89190613c1b565b611181565b005b3480156103fb57600080fd5b5061041660048036038101906104119190613659565b6113ee565b60405161042391906136c7565b60405180910390f35b34801561043857600080fd5b50610453600480360381019061044e9190613c8a565b611475565b60405161046a9b9a99989796959493929190613d92565b60405180910390f35b34801561047f57600080fd5b5061049a600480360381019061049591906137cb565b61164f565b6040516104a7919061375d565b60405180910390f35b3480156104bc57600080fd5b506104c5611707565b005b3480156104d357600080fd5b506104dc61171b565b6040516104e991906136c7565b60405180910390f35b3480156104fe57600080fd5b50610507611744565b6040516105149190613601565b60405180910390f35b34801561052957600080fd5b50610544600480360381019061053f9190613e77565b6117d6565b005b34801561055257600080fd5b5061056d60048036038101906105689190613f58565b6117ec565b005b61058960048036038101906105849190613fdb565b61184e565b005b34801561059757600080fd5b506105b260048036038101906105ad9190613659565b611a74565b6040516105bf9190613601565b60405180910390f35b3480156105d457600080fd5b506105ef60048036038101906105ea9190614037565b611a86565b6040516105fc919061354d565b60405180910390f35b34801561061157600080fd5b5061062c600480360381019061062791906137cb565b611b1a565b005b600061063982611b9e565b9050919050565b60606001805461064f906140a6565b80601f016020809104026020016040519081016040528092919081815260200182805461067b906140a6565b80156106c85780601f1061069d576101008083540402835291602001916106c8565b820191906000526020600020905b8154815290600101906020018083116106ab57829003601f168201915b5050505050905090565b60006106dd82611c18565b6005600083815260200190815260200160002060009054906101000a900473ffffffffffffffffffffffffffffffffffffffff169050919050565b6000610723826113ee565b90508073ffffffffffffffffffffffffffffffffffffffff168373ffffffffffffffffffffffffffffffffffffffff161415610794576040517f08c379a000000000000000000000000000000000000000000000000000000000815260040161078b9061414a565b60405180910390fd5b8073ffffffffffffffffffffffffffffffffffffffff166107b3611c63565b73ffffffffffffffffffffffffffffffffffffffff1614806107e257506107e1816107dc611c63565b611a86565b5b610821576040517f08c379a0000000000000000000000000000000000000000000000000000000008152600401610818906141dc565b60405180910390fd5b61082b8383611c6b565b505050565b6000600b80549050905090565b61084e610848611c63565b82611d24565b61088d576040517f08c379a00000000000000000000000000000000000000000000000000000000081526004016108849061426e565b60405180910390fd5b610898838383611db9565b505050565b60006108a88361164f565b82106108e9576040517f08c379a00000000000000000000000000000000000000000000000000000000081526004016108e090614300565b60405180910390fd5b600960008473ffffffffffffffffffffffffffffffffffffffff1673ffffffffffffffffffffffffffffffffffffffff168152602001908152602001600020600083815260200190815260200160002054905092915050565b6060600061094f8361164f565b905060008167ffffffffffffffff81111561096d5761096c613930565b5b6040519080825280602002602001820160405280156109a057816020015b606081526020019060019003908161098b5790505b50905060005b828110156109f1576109c06109bb868361089d565b611a74565b8282815181106109d3576109d2614320565b5b602002602001018190525080806109e99061437e565b9150506109a6565b508092505050919050565b60026003811115610a1057610a0f613cd3565b5b600d85604051610a209190614403565b908152602001604051809103902060000160009054906101000a900460ff166003811115610a5157610a50613cd3565b5b14610a91576040517f08c379a0000000000000000000000000000000000000000000000000000000008152600401610a889061448c565b60405180910390fd5b600d84604051610aa19190614403565b908152602001604051809103902060020160009054906101000a900473ffffffffffffffffffffffffffffffffffffffff1673ffffffffffffffffffffffffffffffffffffffff163373ffffffffffffffffffffffffffffffffffffffff161480610b785750600d84604051610b179190614403565b908152602001604051809103902060030160009054906101000a900473ffffffffffffffffffffffffffffffffffffffff1673ffffffffffffffffffffffffffffffffffffffff163373ffffffffffffffffffffffffffffffffffffffff16145b610bb7576040517f08c379a0000000000000000000000000000000000000000000000000000000008152600401610bae9061451e565b60405180910390fd5b6003600d85604051610bc99190614403565b908152602001604051809103902060000160006101000a81548160ff02191690836003811115610bfc57610bfb613cd3565b5b021790555080600d85604051610c129190614403565b908152602001604051809103902060050160006101000a81548160ff02191690836002811115610c4557610c44613cd3565b5b021790555082600d85604051610c5b9190614403565b90815260200160405180910390206006019080519060200190610c7f9291906133f6565b5042600d85604051610c919190614403565b9081526020016040518091039020600a01819055506000600280811115610cbb57610cba613cd3565b5b826002811115610cce57610ccd613cd3565b5b1415610db157610d40600d86604051610ce79190614403565b908152602001604051809103902060020160009054906101000a900473ffffffffffffffffffffffffffffffffffffffff16600d87604051610d299190614403565b9081526020016040518091039020600401546120b3565b610dac600d86604051610d539190614403565b908152602001604051809103902060030160009054906101000a900473ffffffffffffffffffffffffffffffffffffffff16600d87604051610d959190614403565b9081526020016040518091039020600401546120b3565b610e9b565b60006002811115610dc557610dc4613cd3565b5b826002811115610dd857610dd7613cd3565b5b1415610e2757600d85604051610dee9190614403565b908152602001604051809103902060020160009054906101000a900473ffffffffffffffffffffffffffffffffffffffff169050610e9a565b60016002811115610e3b57610e3a613cd3565b5b826002811115610e4e57610e4d613cd3565b5b1415610e9957600d85604051610e649190614403565b908152602001604051809103902060030160009054906101000a900473ffffffffffffffffffffffffffffffffffffffff1690505b5b5b600073ffffffffffffffffffffffffffffffffffffffff168173ffffffffffffffffffffffffffffffffffffffff1614610f3c576000610edb8285612174565b905080600d87604051610eee9190614403565b908152602001604051809103902060070181905550610f3a82600d88604051610f179190614403565b9081526020016040518091039020600401546002610f35919061453e565b6120b3565b505b600d85604051610f4c9190614403565b908152602001604051809103902060030160009054906101000a900473ffffffffffffffffffffffffffffffffffffffff1673ffffffffffffffffffffffffffffffffffffffff16600d86604051610fa49190614403565b908152602001604051809103902060020160009054906101000a900473ffffffffffffffffffffffffffffffffffffffff1673ffffffffffffffffffffffffffffffffffffffff1686604051610ffa9190614403565b60405180910390207faf90ab4ca13294a1c7cb51db93cd861b70bb7f76b3ca29fae1f132d4e66432738588604051611033929190614598565b60405180910390a45050505050565b61105d838383604051806020016040528060008152506117ec565b505050565b6060600061106f8361164f565b905060008167ffffffffffffffff81111561108d5761108c613930565b5b6040519080825280602002602001820160405280156110bb5781602001602082028036833780820191505090505b50905060005b82811015611105576110d3858261089d565b8282815181106110e6576110e5614320565b5b60200260200101818152505080806110fd9061437e565b9150506110c1565b508092505050919050565b600061111a610830565b821061115b576040517f08c379a00000000000000000000000000000000000000000000000000000000081526004016111529061463a565b60405180910390fd5b600b828154811061116f5761116e614320565b5b90600052602060002001549050919050565b6000600381111561119557611194613cd3565b5b600d846040516111a59190614403565b908152602001604051809103902060000160009054906101000a900460ff1660038111156111d6576111d5613cd3565b5b14611216576040517f08c379a000000000000000000000000000000000000000000000000000000000815260040161120d906146cc565b60405180910390fd5b80341015611259576040517f08c379a000000000000000000000000000000000000000000000000000000000815260040161125090614738565b60405180910390fd5b6001600d8460405161126b9190614403565b908152602001604051809103902060000160006101000a81548160ff0219169083600381111561129e5761129d613cd3565b5b021790555082600d846040516112b49190614403565b908152602001604051809103902060010190805190602001906112d89291906133f6565b5081600d846040516112ea9190614403565b908152602001604051809103902060020160006101000a81548173ffffffffffffffffffffffffffffffffffffffff021916908373ffffffffffffffffffffffffffffffffffffffff16021790555080600d8460405161134a9190614403565b90815260200160405180910390206004018190555042600d846040516113709190614403565b9081526020016040518091039020600801819055508173ffffffffffffffffffffffffffffffffffffffff16836040516113aa9190614403565b60405180910390207f5467597a96a4ef53bccdf1e6e625595e100c0c2e7cf48bb39397b67e2fc91ebc836040516113e1919061375d565b60405180910390a3505050565b6000806113fa836121b1565b9050600073ffffffffffffffffffffffffffffffffffffffff168173ffffffffffffffffffffffffffffffffffffffff16141561146c576040517f08c379a0000000000000000000000000000000000000000000000000000000008152600401611463906147a4565b60405180910390fd5b80915050919050565b600d818051602081018201805184825260208301602085012081835280955050505050506000915090508060000160009054906101000a900460ff16908060010180546114c1906140a6565b80601f01602080910402602001604051908101604052809291908181526020018280546114ed906140a6565b801561153a5780601f1061150f5761010080835404028352916020019161153a565b820191906000526020600020905b81548152906001019060200180831161151d57829003601f168201915b5050505050908060020160009054906101000a900473ffffffffffffffffffffffffffffffffffffffff16908060030160009054906101000a900473ffffffffffffffffffffffffffffffffffffffff16908060040154908060050160009054906101000a900460ff16908060060180546115b4906140a6565b80601f01602080910402602001604051908101604052809291908181526020018280546115e0906140a6565b801561162d5780601f106116025761010080835404028352916020019161162d565b820191906000526020600020905b81548152906001019060200180831161161057829003601f168201915b50505050509080600701549080600801549080600901549080600a015490508b565b60008073ffffffffffffffffffffffffffffffffffffffff168273ffffffffffffffffffffffffffffffffffffffff1614156116c0576040517f08c379a00000000000000000000000000000000000000000000000000000000081526004016116b790614836565b60405180910390fd5b600460008373ffffffffffffffffffffffffffffffffffffffff1673ffffffffffffffffffffffffffffffffffffffff168152602001908152602001600020549050919050565b61170f6121ee565b611719600061226c565b565b60008060009054906101000a900473ffffffffffffffffffffffffffffffffffffffff16905090565b606060028054611753906140a6565b80601f016020809104026020016040519081016040528092919081815260200182805461177f906140a6565b80156117cc5780601f106117a1576101008083540402835291602001916117cc565b820191906000526020600020905b8154815290600101906020018083116117af57829003601f168201915b5050505050905090565b6117e86117e1611c63565b8383612330565b5050565b6117fd6117f7611c63565b83611d24565b61183c576040517f08c379a00000000000000000000000000000000000000000000000000000000081526004016118339061426e565b60405180910390fd5b6118488484848461249d565b50505050565b6001600381111561186257611861613cd3565b5b600d836040516118729190614403565b908152602001604051809103902060000160009054906101000a900460ff1660038111156118a3576118a2613cd3565b5b146118e3576040517f08c379a00000000000000000000000000000000000000000000000000000000081526004016118da9061448c565b60405180910390fd5b600d826040516118f39190614403565b908152602001604051809103902060040154341015611947576040517f08c379a000000000000000000000000000000000000000000000000000000000815260040161193e90614738565b60405180910390fd5b6002600d836040516119599190614403565b908152602001604051809103902060000160006101000a81548160ff0219169083600381111561198c5761198b613cd3565b5b021790555080600d836040516119a29190614403565b908152602001604051809103902060030160006101000a81548173ffffffffffffffffffffffffffffffffffffffff021916908373ffffffffffffffffffffffffffffffffffffffff16021790555042600d83604051611a029190614403565b9081526020016040518091039020600901819055508073ffffffffffffffffffffffffffffffffffffffff1682604051611a3c9190614403565b60405180910390207f78c50c7585fab61f8b91196a049fafa00fba942de8996f59dcbddc7e00ccde0e60405160405180910390a35050565b6060611a7f826124f9565b9050919050565b6000600660008473ffffffffffffffffffffffffffffffffffffffff1673ffffffffffffffffffffffffffffffffffffffff16815260200190815260200160002060008373ffffffffffffffffffffffffffffffffffffffff1673ffffffffffffffffffffffffffffffffffffffff16815260200190815260200160002060009054906101000a900460ff16905092915050565b611b226121ee565b600073ffffffffffffffffffffffffffffffffffffffff168173ffffffffffffffffffffffffffffffffffffffff161415611b92576040517f08c379a0000000000000000000000000000000000000000000000000000000008152600401611b89906148c8565b60405180910390fd5b611b9b8161226c565b50565b60007f780e9d63000000000000000000000000000000000000000000000000000000007bffffffffffffffffffffffffffffffffffffffffffffffffffffffff1916827bffffffffffffffffffffffffffffffffffffffffffffffffffffffff19161480611c115750611c108261260c565b5b9050919050565b611c218161266d565b611c60576040517f08c379a0000000000000000000000000000000000000000000000000000000008152600401611c57906147a4565b60405180910390fd5b50565b600033905090565b816005600083815260200190815260200160002060006101000a81548173ffffffffffffffffffffffffffffffffffffffff021916908373ffffffffffffffffffffffffffffffffffffffff160217905550808273ffffffffffffffffffffffffffffffffffffffff16611cde836113ee565b73ffffffffffffffffffffffffffffffffffffffff167f8c5be1e5ebec7d5bd14f71427d1e84f3dd0314c0f7b2291e5b200ac8c7c3b92560405160405180910390a45050565b600080611d30836113ee565b90508073ffffffffffffffffffffffffffffffffffffffff168473ffffffffffffffffffffffffffffffffffffffff161480611d725750611d718185611a86565b5b80611db057508373ffffffffffffffffffffffffffffffffffffffff16611d98846106d2565b73ffffffffffffffffffffffffffffffffffffffff16145b91505092915050565b8273ffffffffffffffffffffffffffffffffffffffff16611dd9826113ee565b73ffffffffffffffffffffffffffffffffffffffff1614611e2f576040517f08c379a0000000000000000000000000000000000000000000000000000000008152600401611e269061495a565b60405180910390fd5b600073ffffffffffffffffffffffffffffffffffffffff168273ffffffffffffffffffffffffffffffffffffffff161415611e9f576040517f08c379a0000000000000000000000000000000000000000000000000000000008152600401611e96906149ec565b60405180910390fd5b611eac83838360016126ae565b8273ffffffffffffffffffffffffffffffffffffffff16611ecc826113ee565b73ffffffffffffffffffffffffffffffffffffffff1614611f22576040517f08c379a0000000000000000000000000000000000000000000000000000000008152600401611f199061495a565b60405180910390fd5b6005600082815260200190815260200160002060006101000a81549073ffffffffffffffffffffffffffffffffffffffff02191690556001600460008573ffffffffffffffffffffffffffffffffffffffff1673ffffffffffffffffffffffffffffffffffffffff168152602001908152602001600020600082825403925050819055506001600460008473ffffffffffffffffffffffffffffffffffffffff1673ffffffffffffffffffffffffffffffffffffffff16815260200190815260200160002060008282540192505081905550816003600083815260200190815260200160002060006101000a81548173ffffffffffffffffffffffffffffffffffffffff021916908373ffffffffffffffffffffffffffffffffffffffff160217905550808273ffffffffffffffffffffffffffffffffffffffff168473ffffffffffffffffffffffffffffffffffffffff167fddf252ad1be2c89b69c2b068fc378daa952ba7f163c4a11628f55a4df523b3ef60405160405180910390a46120ae83838360016126c0565b505050565b6120bb6126c6565b60008273ffffffffffffffffffffffffffffffffffffffff16826040516120e190614a3d565b60006040518083038185875af1925050503d806000811461211e576040519150601f19603f3d011682016040523d82523d6000602084013e612123565b606091505b5050905080612167576040517f08c379a000000000000000000000000000000000000000000000000000000000815260040161215e90614a9e565b60405180910390fd5b50612170612716565b5050565b60008061217f610830565b905060006001826121909190614abe565b905061219c8582612720565b6121a6818561293e565b809250505092915050565b60006003600083815260200190815260200160002060009054906101000a900473ffffffffffffffffffffffffffffffffffffffff169050919050565b6121f6611c63565b73ffffffffffffffffffffffffffffffffffffffff1661221461171b565b73ffffffffffffffffffffffffffffffffffffffff161461226a576040517f08c379a000000000000000000000000000000000000000000000000000000000815260040161226190614b60565b60405180910390fd5b565b60008060009054906101000a900473ffffffffffffffffffffffffffffffffffffffff169050816000806101000a81548173ffffffffffffffffffffffffffffffffffffffff021916908373ffffffffffffffffffffffffffffffffffffffff1602179055508173ffffffffffffffffffffffffffffffffffffffff168173ffffffffffffffffffffffffffffffffffffffff167f8be0079c531659141344cd1fd0a4f28419497f9722a3daafe3b4186f6b6457e060405160405180910390a35050565b8173ffffffffffffffffffffffffffffffffffffffff168373ffffffffffffffffffffffffffffffffffffffff16141561239f576040517f08c379a000000000000000000000000000000000000000000000000000000000815260040161239690614bcc565b60405180910390fd5b80600660008573ffffffffffffffffffffffffffffffffffffffff1673ffffffffffffffffffffffffffffffffffffffff16815260200190815260200160002060008473ffffffffffffffffffffffffffffffffffffffff1673ffffffffffffffffffffffffffffffffffffffff16815260200190815260200160002060006101000a81548160ff0219169083151502179055508173ffffffffffffffffffffffffffffffffffffffff168373ffffffffffffffffffffffffffffffffffffffff167f17307eab39ab6107e8899845ad3d59bd9653f200f220920489ca2b5937696c3183604051612490919061354d565b60405180910390a3505050565b6124a8848484611db9565b6124b4848484846129e9565b6124f3576040517f08c379a00000000000000000000000000000000000000000000000000000000081526004016124ea90614c5e565b60405180910390fd5b50505050565b606061250482611c18565b6000600860008481526020019081526020016000208054612524906140a6565b80601f0160208091040260200160405190810160405280929190818152602001828054612550906140a6565b801561259d5780601f106125725761010080835404028352916020019161259d565b820191906000526020600020905b81548152906001019060200180831161258057829003601f168201915b5050505050905060006125ae612b71565b90506000815114156125c4578192505050612607565b6000825111156125f95780826040516020016125e1929190614c7e565b60405160208183030381529060405292505050612607565b61260284612b88565b925050505b919050565b6000634906490660e01b7bffffffffffffffffffffffffffffffffffffffffffffffffffffffff1916827bffffffffffffffffffffffffffffffffffffffffffffffffffffffff19161480612666575061266582612bf0565b5b9050919050565b60008073ffffffffffffffffffffffffffffffffffffffff1661268f836121b1565b73ffffffffffffffffffffffffffffffffffffffff1614159050919050565b6126ba84848484612cd2565b50505050565b50505050565b6002600754141561270c576040517f08c379a000000000000000000000000000000000000000000000000000000000815260040161270390614cee565b60405180910390fd5b6002600781905550565b6001600781905550565b600073ffffffffffffffffffffffffffffffffffffffff168273ffffffffffffffffffffffffffffffffffffffff161415612790576040517f08c379a000000000000000000000000000000000000000000000000000000000815260040161278790614d5a565b60405180910390fd5b6127998161266d565b156127d9576040517f08c379a00000000000000000000000000000000000000000000000000000000081526004016127d090614dc6565b60405180910390fd5b6127e76000838360016126ae565b6127f08161266d565b15612830576040517f08c379a000000000000000000000000000000000000000000000000000000000815260040161282790614dc6565b60405180910390fd5b6001600460008473ffffffffffffffffffffffffffffffffffffffff1673ffffffffffffffffffffffffffffffffffffffff16815260200190815260200160002060008282540192505081905550816003600083815260200190815260200160002060006101000a81548173ffffffffffffffffffffffffffffffffffffffff021916908373ffffffffffffffffffffffffffffffffffffffff160217905550808273ffffffffffffffffffffffffffffffffffffffff16600073ffffffffffffffffffffffffffffffffffffffff167fddf252ad1be2c89b69c2b068fc378daa952ba7f163c4a11628f55a4df523b3ef60405160405180910390a461293a6000838360016126c0565b5050565b6129478261266d565b612986576040517f08c379a000000000000000000000000000000000000000000000000000000000815260040161297d90614e58565b60405180910390fd5b806008600084815260200190815260200160002090805190602001906129ad9291906133f6565b507ff8e1a15aba9398e019f0b49df1a4fde98ee17ae345cb5f6b5e2c27f5033e8ce7826040516129dd919061375d565b60405180910390a15050565b6000612a0a8473ffffffffffffffffffffffffffffffffffffffff16612e32565b15612b64578373ffffffffffffffffffffffffffffffffffffffff1663150b7a02612a33611c63565b8786866040518563ffffffff1660e01b8152600401612a559493929190614ecd565b6020604051808303816000875af1925050508015612a9157506040513d601f19601f82011682018060405250810190612a8e9190614f2e565b60015b612b14573d8060008114612ac1576040519150601f19603f3d011682016040523d82523d6000602084013e612ac6565b606091505b50600081511415612b0c576040517f08c379a0000000000000000000000000000000000000000000000000000000008152600401612b0390614c5e565b60405180910390fd5b805181602001fd5b63150b7a0260e01b7bffffffffffffffffffffffffffffffffffffffffffffffffffffffff1916817bffffffffffffffffffffffffffffffffffffffffffffffffffffffff191614915050612b69565b600190505b949350505050565b606060405180602001604052806000815250905090565b6060612b9382611c18565b6000612b9d612b71565b90506000815111612bbd5760405180602001604052806000815250612be8565b80612bc784612e55565b604051602001612bd8929190614c7e565b6040516020818303038152906040525b915050919050565b60007f80ac58cd000000000000000000000000000000000000000000000000000000007bffffffffffffffffffffffffffffffffffffffffffffffffffffffff1916827bffffffffffffffffffffffffffffffffffffffffffffffffffffffff19161480612cbb57507f5b5e139f000000000000000000000000000000000000000000000000000000007bffffffffffffffffffffffffffffffffffffffffffffffffffffffff1916827bffffffffffffffffffffffffffffffffffffffffffffffffffffffff1916145b80612ccb5750612cca82612f2d565b5b9050919050565b612cde84848484612f97565b6001811115612d22576040517f08c379a0000000000000000000000000000000000000000000000000000000008152600401612d1990614fcd565b60405180910390fd5b6000829050600073ffffffffffffffffffffffffffffffffffffffff168573ffffffffffffffffffffffffffffffffffffffff161415612d6a57612d6581612f9d565b612da9565b8373ffffffffffffffffffffffffffffffffffffffff168573ffffffffffffffffffffffffffffffffffffffff1614612da857612da78582612fe6565b5b5b600073ffffffffffffffffffffffffffffffffffffffff168473ffffffffffffffffffffffffffffffffffffffff161415612dec57612de781613153565b612e2b565b8473ffffffffffffffffffffffffffffffffffffffff168473ffffffffffffffffffffffffffffffffffffffff1614612e2a57612e298482613224565b5b5b5050505050565b6000808273ffffffffffffffffffffffffffffffffffffffff163b119050919050565b606060006001612e64846132a3565b01905060008167ffffffffffffffff811115612e8357612e82613930565b5b6040519080825280601f01601f191660200182016040528015612eb55781602001600182028036833780820191505090505b509050600082602001820190505b600115612f22578080600190039150507f3031323334353637383961626364656600000000000000000000000000000000600a86061a8153600a8581612f0c57612f0b614fed565b5b0494506000851415612f1d57612f22565b612ec3565b819350505050919050565b60007f01ffc9a7000000000000000000000000000000000000000000000000000000007bffffffffffffffffffffffffffffffffffffffffffffffffffffffff1916827bffffffffffffffffffffffffffffffffffffffffffffffffffffffff1916149050919050565b50505050565b600b80549050600c600083815260200190815260200160002081905550600b81908060018154018082558091505060019003906000526020600020016000909190919091505550565b60006001612ff38461164f565b612ffd919061501c565b90506000600a60008481526020019081526020016000205490508181146130e2576000600960008673ffffffffffffffffffffffffffffffffffffffff1673ffffffffffffffffffffffffffffffffffffffff168152602001908152602001600020600084815260200190815260200160002054905080600960008773ffffffffffffffffffffffffffffffffffffffff1673ffffffffffffffffffffffffffffffffffffffff16815260200190815260200160002060008481526020019081526020016000208190555081600a600083815260200190815260200160002081905550505b600a600084815260200190815260200160002060009055600960008573ffffffffffffffffffffffffffffffffffffffff1673ffffffffffffffffffffffffffffffffffffffff16815260200190815260200160002060008381526020019081526020016000206000905550505050565b60006001600b80549050613167919061501c565b90506000600c60008481526020019081526020016000205490506000600b838154811061319757613196614320565b5b9060005260206000200154905080600b83815481106131b9576131b8614320565b5b906000526020600020018190555081600c600083815260200190815260200160002081905550600c600085815260200190815260200160002060009055600b80548061320857613207615050565b5b6001900381819060005260206000200160009055905550505050565b600061322f8361164f565b905081600960008573ffffffffffffffffffffffffffffffffffffffff1673ffffffffffffffffffffffffffffffffffffffff16815260200190815260200160002060008381526020019081526020016000208190555080600a600084815260200190815260200160002081905550505050565b600080600090507a184f03e93ff9f4daa797ed6e38ed64bf6a1f0100000000000000008310613301577a184f03e93ff9f4daa797ed6e38ed64bf6a1f01000000000000000083816132f7576132f6614fed565b5b0492506040810190505b6d04ee2d6d415b85acef8100000000831061333e576d04ee2d6d415b85acef8100000000838161333457613333614fed565b5b0492506020810190505b662386f26fc10000831061336d57662386f26fc10000838161336357613362614fed565b5b0492506010810190505b6305f5e1008310613396576305f5e100838161338c5761338b614fed565b5b0492506008810190505b61271083106133bb5761271083816133b1576133b0614fed565b5b0492506004810190505b606483106133de57606483816133d4576133d3614fed565b5b0492506002810190505b600a83106133ed576001810190505b80915050919050565b828054613402906140a6565b90600052602060002090601f016020900481019282613424576000855561346b565b82601f1061343d57805160ff191683800117855561346b565b8280016001018555821561346b579182015b8281111561346a57825182559160200191906001019061344f565b5b509050613478919061347c565b5090565b5b8082111561349557600081600090555060010161347d565b5090565b6000604051905090565b600080fd5b600080fd5b60007fffffffff0000000000000000000000000000000000000000000000000000000082169050919050565b6134e2816134ad565b81146134ed57600080fd5b50565b6000813590506134ff816134d9565b92915050565b60006020828403121561351b5761351a6134a3565b5b6000613529848285016134f0565b91505092915050565b60008115159050919050565b61354781613532565b82525050565b6000602082019050613562600083018461353e565b92915050565b600081519050919050565b600082825260208201905092915050565b60005b838110156135a2578082015181840152602081019050613587565b838111156135b1576000848401525b50505050565b6000601f19601f8301169050919050565b60006135d382613568565b6135dd8185613573565b93506135ed818560208601613584565b6135f6816135b7565b840191505092915050565b6000602082019050818103600083015261361b81846135c8565b905092915050565b6000819050919050565b61363681613623565b811461364157600080fd5b50565b6000813590506136538161362d565b92915050565b60006020828403121561366f5761366e6134a3565b5b600061367d84828501613644565b91505092915050565b600073ffffffffffffffffffffffffffffffffffffffff82169050919050565b60006136b182613686565b9050919050565b6136c1816136a6565b82525050565b60006020820190506136dc60008301846136b8565b92915050565b6136eb816136a6565b81146136f657600080fd5b50565b600081359050613708816136e2565b92915050565b60008060408385031215613725576137246134a3565b5b6000613733858286016136f9565b925050602061374485828601613644565b9150509250929050565b61375781613623565b82525050565b6000602082019050613772600083018461374e565b92915050565b600080600060608486031215613791576137906134a3565b5b600061379f868287016136f9565b93505060206137b0868287016136f9565b92505060406137c186828701613644565b9150509250925092565b6000602082840312156137e1576137e06134a3565b5b60006137ef848285016136f9565b91505092915050565b600081519050919050565b600082825260208201905092915050565b6000819050602082019050919050565b600082825260208201905092915050565b600061384082613568565b61384a8185613824565b935061385a818560208601613584565b613863816135b7565b840191505092915050565b600061387a8383613835565b905092915050565b6000602082019050919050565b600061389a826137f8565b6138a48185613803565b9350836020820285016138b685613814565b8060005b858110156138f257848403895281516138d3858261386e565b94506138de83613882565b925060208a019950506001810190506138ba565b50829750879550505050505092915050565b6000602082019050818103600083015261391e818461388f565b905092915050565b600080fd5b600080fd5b7f4e487b7100000000000000000000000000000000000000000000000000000000600052604160045260246000fd5b613968826135b7565b810181811067ffffffffffffffff8211171561398757613986613930565b5b80604052505050565b600061399a613499565b90506139a6828261395f565b919050565b600067ffffffffffffffff8211156139c6576139c5613930565b5b6139cf826135b7565b9050602081019050919050565b82818337600083830152505050565b60006139fe6139f9846139ab565b613990565b905082815260208101848484011115613a1a57613a1961392b565b5b613a258482856139dc565b509392505050565b600082601f830112613a4257613a41613926565b5b8135613a528482602086016139eb565b91505092915050565b60038110613a6857600080fd5b50565b600081359050613a7a81613a5b565b92915050565b60008060008060808587031215613a9a57613a996134a3565b5b600085013567ffffffffffffffff811115613ab857613ab76134a8565b5b613ac487828801613a2d565b945050602085013567ffffffffffffffff811115613ae557613ae46134a8565b5b613af187828801613a2d565b935050604085013567ffffffffffffffff811115613b1257613b116134a8565b5b613b1e87828801613a2d565b9250506060613b2f87828801613a6b565b91505092959194509250565b600081519050919050565b600082825260208201905092915050565b6000819050602082019050919050565b613b7081613623565b82525050565b6000613b828383613b67565b60208301905092915050565b6000602082019050919050565b6000613ba682613b3b565b613bb08185613b46565b9350613bbb83613b57565b8060005b83811015613bec578151613bd38882613b76565b9750613bde83613b8e565b925050600181019050613bbf565b5085935050505092915050565b60006020820190508181036000830152613c138184613b9b565b905092915050565b600080600060608486031215613c3457613c336134a3565b5b600084013567ffffffffffffffff811115613c5257613c516134a8565b5b613c5e86828701613a2d565b9350506020613c6f868287016136f9565b9250506040613c8086828701613644565b9150509250925092565b600060208284031215613ca057613c9f6134a3565b5b600082013567ffffffffffffffff811115613cbe57613cbd6134a8565b5b613cca84828501613a2d565b91505092915050565b7f4e487b7100000000000000000000000000000000000000000000000000000000600052602160045260246000fd5b60048110613d1357613d12613cd3565b5b50565b6000819050613d2482613d02565b919050565b6000613d3482613d16565b9050919050565b613d4481613d29565b82525050565b60038110613d5b57613d5a613cd3565b5b50565b6000819050613d6c82613d4a565b919050565b6000613d7c82613d5e565b9050919050565b613d8c81613d71565b82525050565b600061016082019050613da8600083018e613d3b565b8181036020830152613dba818d6135c8565b9050613dc9604083018c6136b8565b613dd6606083018b6136b8565b613de3608083018a61374e565b613df060a0830189613d83565b81810360c0830152613e0281886135c8565b9050613e1160e083018761374e565b613e1f61010083018661374e565b613e2d61012083018561374e565b613e3b61014083018461374e565b9c9b505050505050505050505050565b613e5481613532565b8114613e5f57600080fd5b50565b600081359050613e7181613e4b565b92915050565b60008060408385031215613e8e57613e8d6134a3565b5b6000613e9c858286016136f9565b9250506020613ead85828601613e62565b9150509250929050565b600067ffffffffffffffff821115613ed257613ed1613930565b5b613edb826135b7565b9050602081019050919050565b6000613efb613ef684613eb7565b613990565b905082815260208101848484011115613f1757613f1661392b565b5b613f228482856139dc565b509392505050565b600082601f830112613f3f57613f3e613926565b5b8135613f4f848260208601613ee8565b91505092915050565b60008060008060808587031215613f7257613f716134a3565b5b6000613f80878288016136f9565b9450506020613f91878288016136f9565b9350506040613fa287828801613644565b925050606085013567ffffffffffffffff811115613fc357613fc26134a8565b5b613fcf87828801613f2a565b91505092959194509250565b60008060408385031215613ff257613ff16134a3565b5b600083013567ffffffffffffffff8111156140105761400f6134a8565b5b61401c85828601613a2d565b925050602061402d858286016136f9565b9150509250929050565b6000806040838503121561404e5761404d6134a3565b5b600061405c858286016136f9565b925050602061406d858286016136f9565b9150509250929050565b7f4e487b7100000000000000000000000000000000000000000000000000000000600052602260045260246000fd5b600060028204905060018216806140be57607f821691505b602082108114156140d2576140d1614077565b5b50919050565b7f4552433732313a20617070726f76616c20746f2063757272656e74206f776e6560008201527f7200000000000000000000000000000000000000000000000000000000000000602082015250565b6000614134602183613573565b915061413f826140d8565b604082019050919050565b6000602082019050818103600083015261416381614127565b9050919050565b7f4552433732313a20617070726f76652063616c6c6572206973206e6f7420746f60008201527f6b656e206f776e6572206f7220617070726f76656420666f7220616c6c000000602082015250565b60006141c6603d83613573565b91506141d18261416a565b604082019050919050565b600060208201905081810360008301526141f5816141b9565b9050919050565b7f4552433732313a2063616c6c6572206973206e6f7420746f6b656e206f776e6560008201527f72206f7220617070726f76656400000000000000000000000000000000000000602082015250565b6000614258602d83613573565b9150614263826141fc565b604082019050919050565b600060208201905081810360008301526142878161424b565b9050919050565b7f455243373231456e756d657261626c653a206f776e657220696e646578206f7560008201527f74206f6620626f756e6473000000000000000000000000000000000000000000602082015250565b60006142ea602b83613573565b91506142f58261428e565b604082019050919050565b60006020820190508181036000830152614319816142dd565b9050919050565b7f4e487b7100000000000000000000000000000000000000000000000000000000600052603260045260246000fd5b7f4e487b7100000000000000000000000000000000000000000000000000000000600052601160045260246000fd5b600061438982613623565b91507fffffffffffffffffffffffffffffffffffffffffffffffffffffffffffffffff8214156143bc576143bb61434f565b5b600182019050919050565b600081905092915050565b60006143dd82613568565b6143e781856143c7565b93506143f7818560208601613584565b80840191505092915050565b600061440f82846143d2565b915081905092915050565b7f496e76616c6964207265717565737420666f722074686973206d61746368204960008201527f4400000000000000000000000000000000000000000000000000000000000000602082015250565b6000614476602183613573565b91506144818261441a565b604082019050919050565b600060208201905081810360008301526144a581614469565b9050919050565b7f6f6e6c79206d617463682063726561746f722c206a6f696e65722c206f72206160008201527f646d696e00000000000000000000000000000000000000000000000000000000602082015250565b6000614508602483613573565b9150614513826144ac565b604082019050919050565b60006020820190508181036000830152614537816144fb565b9050919050565b600061454982613623565b915061455483613623565b9250817fffffffffffffffffffffffffffffffffffffffffffffffffffffffffffffffff048311821515161561458d5761458c61434f565b5b828202905092915050565b60006040820190506145ad6000830185613d83565b81810360208301526145bf81846135c8565b90509392505050565b7f455243373231456e756d657261626c653a20676c6f62616c20696e646578206f60008201527f7574206f6620626f756e64730000000000000000000000000000000000000000602082015250565b6000614624602c83613573565b915061462f826145c8565b604082019050919050565b6000602082019050818103600083015261465381614617565b9050919050565b7f416c7265616479206d617463682063726561746564207769746820746869732060008201527f6d61746368206964000000000000000000000000000000000000000000000000602082015250565b60006146b6602883613573565b91506146c18261465a565b604082019050919050565b600060208201905081810360008301526146e5816146a9565b9050919050565b7f73656e642066756c6c207374616b6520616d6f756e7400000000000000000000600082015250565b6000614722601683613573565b915061472d826146ec565b602082019050919050565b6000602082019050818103600083015261475181614715565b9050919050565b7f4552433732313a20696e76616c696420746f6b656e2049440000000000000000600082015250565b600061478e601883613573565b915061479982614758565b602082019050919050565b600060208201905081810360008301526147bd81614781565b9050919050565b7f4552433732313a2061646472657373207a65726f206973206e6f74206120766160008201527f6c6964206f776e65720000000000000000000000000000000000000000000000602082015250565b6000614820602983613573565b915061482b826147c4565b604082019050919050565b6000602082019050818103600083015261484f81614813565b9050919050565b7f4f776e61626c653a206e6577206f776e657220697320746865207a65726f206160008201527f6464726573730000000000000000000000000000000000000000000000000000602082015250565b60006148b2602683613573565b91506148bd82614856565b604082019050919050565b600060208201905081810360008301526148e1816148a5565b9050919050565b7f4552433732313a207472616e736665722066726f6d20696e636f72726563742060008201527f6f776e6572000000000000000000000000000000000000000000000000000000602082015250565b6000614944602583613573565b915061494f826148e8565b604082019050919050565b6000602082019050818103600083015261497381614937565b9050919050565b7f4552433732313a207472616e7366657220746f20746865207a65726f2061646460008201527f7265737300000000000000000000000000000000000000000000000000000000602082015250565b60006149d6602483613573565b91506149e18261497a565b604082019050919050565b60006020820190508181036000830152614a05816149c9565b9050919050565b600081905092915050565b50565b6000614a27600083614a0c565b9150614a3282614a17565b600082019050919050565b6000614a4882614a1a565b9150819050919050565b7f73656e64696e67206d6f6e6579206661696c6564000000000000000000000000600082015250565b6000614a88601483613573565b9150614a9382614a52565b602082019050919050565b60006020820190508181036000830152614ab781614a7b565b9050919050565b6000614ac982613623565b9150614ad483613623565b9250827fffffffffffffffffffffffffffffffffffffffffffffffffffffffffffffffff03821115614b0957614b0861434f565b5b828201905092915050565b7f4f776e61626c653a2063616c6c6572206973206e6f7420746865206f776e6572600082015250565b6000614b4a602083613573565b9150614b5582614b14565b602082019050919050565b60006020820190508181036000830152614b7981614b3d565b9050919050565b7f4552433732313a20617070726f766520746f2063616c6c657200000000000000600082015250565b6000614bb6601983613573565b9150614bc182614b80565b602082019050919050565b60006020820190508181036000830152614be581614ba9565b9050919050565b7f4552433732313a207472616e7366657220746f206e6f6e20455243373231526560008201527f63656976657220696d706c656d656e7465720000000000000000000000000000602082015250565b6000614c48603283613573565b9150614c5382614bec565b604082019050919050565b60006020820190508181036000830152614c7781614c3b565b9050919050565b6000614c8a82856143d2565b9150614c9682846143d2565b91508190509392505050565b7f5265656e7472616e637947756172643a207265656e7472616e742063616c6c00600082015250565b6000614cd8601f83613573565b9150614ce382614ca2565b602082019050919050565b60006020820190508181036000830152614d0781614ccb565b9050919050565b7f4552433732313a206d696e7420746f20746865207a65726f2061646472657373600082015250565b6000614d44602083613573565b9150614d4f82614d0e565b602082019050919050565b60006020820190508181036000830152614d7381614d37565b9050919050565b7f4552433732313a20746f6b656e20616c7265616479206d696e74656400000000600082015250565b6000614db0601c83613573565b9150614dbb82614d7a565b602082019050919050565b60006020820190508181036000830152614ddf81614da3565b9050919050565b7f45524337323155524953746f726167653a2055524920736574206f66206e6f6e60008201527f6578697374656e7420746f6b656e000000000000000000000000000000000000602082015250565b6000614e42602e83613573565b9150614e4d82614de6565b604082019050919050565b60006020820190508181036000830152614e7181614e35565b9050919050565b600081519050919050565b600082825260208201905092915050565b6000614e9f82614e78565b614ea98185614e83565b9350614eb9818560208601613584565b614ec2816135b7565b840191505092915050565b6000608082019050614ee260008301876136b8565b614eef60208301866136b8565b614efc604083018561374e565b8181036060830152614f0e8184614e94565b905095945050505050565b600081519050614f28816134d9565b92915050565b600060208284031215614f4457614f436134a3565b5b6000614f5284828501614f19565b91505092915050565b7f455243373231456e756d657261626c653a20636f6e736563757469766520747260008201527f616e7366657273206e6f7420737570706f727465640000000000000000000000602082015250565b6000614fb7603583613573565b9150614fc282614f5b565b604082019050919050565b60006020820190508181036000830152614fe681614faa565b9050919050565b7f4e487b7100000000000000000000000000000000000000000000000000000000600052601260045260246000fd5b600061502782613623565b915061503283613623565b9250828210156150455761504461434f565b5b828203905092915050565b7f4e487b7100000000000000000000000000000000000000000000000000000000600052603160045260246000fdfea26469706673582212203795bc740c52be7e72b2a0b453390c3647b4065c466e6919544847b7e286b13d64736f6c634300080c0033",
  "linkReferences": {},
  "deployedLinkReferences": {}
}