{
  "_format": "hh-sol-artifact-1",
  "contractName": "ChessChainGameplay",
  "sourceName": "contracts/ChessPlayCore.sol",
  "abi": [
    {
      "inputs": [],
      "stateMutability": "nonpayable",
      "type": "constructor"
    },
    {
      "anonymous": false,
      "inputs": [
        {
          "indexed": true,
          "internalType": "address",
          "name": "owner",
          "type": "address"
        },
        {
          "indexed": true,
          "internalType": "address",
          "name": "approved",
          "type": "address"
        },
        {
          "indexed": true,
          "internalType": "uint256",
          "name": "tokenId",
          "type": "uint256"
        }
      ],
      "name": "Approval",
      "type": "event"
    },
    {
      "anonymous": false,
      "inputs": [
        {
          "indexed": true,
          "internalType": "address",
          "name": "owner",
          "type": "address"
        },
        {
          "indexed": true,
          "internalType": "address",
          "name": "operator",
          "type": "address"
        },
        {
          "indexed": false,
          "internalType": "bool",
          "name": "approved",
          "type": "bool"
        }
      ],
      "name": "ApprovalForAll",
      "type": "event"
    },
    {
      "anonymous": false,
      "inputs": [
        {
          "indexed": false,
          "internalType": "uint256",
          "name": "_fromTokenId",
          "type": "uint256"
        },
        {
          "indexed": false,
          "internalType": "uint256",
          "name": "_toTokenId",
          "type": "uint256"
        }
      ],
      "name": "BatchMetadataUpdate",
      "type": "event"
    },
    {
      "anonymous": false,
      "inputs": [
        {
          "indexed": true,
          "internalType": "string",
          "name": "matchId",
          "type": "string"
        },
        {
          "indexed": true,
          "internalType": "address",
          "name": "matchCreator",
          "type": "address"
        },
        {
          "indexed": false,
          "internalType": "uint256",
          "name": "stakeAmount",
          "type": "uint256"
        }
      ],
      "name": "MatchCreated",
      "type": "event"
    },
    {
      "anonymous": false,
      "inputs": [
        {
          "indexed": true,
          "internalType": "string",
          "name": "matchId",
          "type": "string"
        },
        {
          "indexed": true,
          "internalType": "address",
          "name": "matchCreator",
          "type": "address"
        },
        {
          "indexed": true,
          "internalType": "address",
          "name": "matchJoiner",
          "type": "address"
        },
        {
          "indexed": false,
          "internalType": "enum ChessChainGameplay.MatchResult",
          "name": "gameResult",
          "type": "uint8"
        },
        {
          "indexed": false,
          "internalType": "string",
          "name": "matchDataURI",
          "type": "string"
        }
      ],
      "name": "MatchEnded",
      "type": "event"
    },
    {
      "anonymous": false,
      "inputs": [
        {
          "indexed": true,
          "internalType": "string",
          "name": "matchId",
          "type": "string"
        },
        {
          "indexed": true,
          "internalType": "address",
          "name": "mathJoiner",
          "type": "address"
        }
      ],
      "name": "MatchStarted",
      "type": "event"
    },
    {
      "anonymous": false,
      "inputs": [
        {
          "indexed": false,
          "internalType": "uint256",
          "name": "_tokenId",
          "type": "uint256"
        }
      ],
      "name": "MetadataUpdate",
      "type": "event"
    },
    {
      "anonymous": false,
      "inputs": [
        {
          "indexed": true,
          "internalType": "address",
          "name": "previousOwner",
          "type": "address"
        },
        {
          "indexed": true,
          "internalType": "address",
          "name": "newOwner",
          "type": "address"
        }
      ],
      "name": "OwnershipTransferred",
      "type": "event"
    },
    {
      "anonymous": false,
      "inputs": [
        {
          "indexed": true,
          "internalType": "address",
          "name": "from",
          "type": "address"
        },
        {
          "indexed": true,
          "internalType": "address",
          "name": "to",
          "type": "address"
        },
        {
          "indexed": true,
          "internalType": "uint256",
          "name": "tokenId",
          "type": "uint256"
        }
      ],
      "name": "Transfer",
      "type": "event"
    },
    {
      "inputs": [],
      "name": "WinnerStakeAmountTimes",
      "outputs": [
        {
          "internalType": "uint256",
          "name": "",
          "type": "uint256"
        }
      ],
      "stateMutability": "view",
      "type": "function"
    },
    {
      "inputs": [
        {
          "internalType": "address",
          "name": "to",
          "type": "address"
        },
        {
          "internalType": "uint256",
          "name": "tokenId",
          "type": "uint256"
        }
      ],
      "name": "approve",
      "outputs": [],
      "stateMutability": "nonpayable",
      "type": "function"
    },
    {
      "inputs": [
        {
          "internalType": "address",
          "name": "owner",
          "type": "address"
        }
      ],
      "name": "balanceOf",
      "outputs": [
        {
          "internalType": "uint256",
          "name": "",
          "type": "uint256"
        }
      ],
      "stateMutability": "view",
      "type": "function"
    },
    {
      "inputs": [
        {
          "internalType": "string",
          "name": "matchId",
          "type": "string"
        },
        {
          "internalType": "address",
          "name": "matchCreator",
          "type": "address"
        },
        {
          "internalType": "uint256",
          "name": "stakeAmount",
          "type": "uint256"
        }
      ],
      "name": "createMatch",
      "outputs": [],
      "stateMutability": "payable",
      "type": "function"
    },
    {
      "inputs": [
        {
          "internalType": "string",
          "name": "matchId",
          "type": "string"
        },
        {
          "internalType": "string",
          "name": "matchDataURI",
          "type": "string"
        },
        {
          "internalType": "string",
          "name": "matchNftURI",
          "type": "string"
        },
        {
          "internalType": "enum ChessChainGameplay.MatchResult",
          "name": "gameResult",
          "type": "uint8"
        }
      ],
      "name": "endMatch",
      "outputs": [],
      "stateMutability": "nonpayable",
      "type": "function"
    },
    {
      "inputs": [
        {
          "internalType": "uint256",
          "name": "tokenId",
          "type": "uint256"
        }
      ],
      "name": "getApproved",
      "outputs": [
        {
          "internalType": "address",
          "name": "",
          "type": "address"
        }
      ],
      "stateMutability": "view",
      "type": "function"
    },
    {
      "inputs": [
        {
          "internalType": "address",
          "name": "owner",
          "type": "address"
        },
        {
          "internalType": "address",
          "name": "operator",
          "type": "address"
        }
      ],
      "name": "isApprovedForAll",
      "outputs": [
        {
          "internalType": "bool",
          "name": "",
          "type": "bool"
        }
      ],
      "stateMutability": "view",
      "type": "function"
    },
    {
      "inputs": [
        {
          "internalType": "string",
          "name": "matchId",
          "type": "string"
        },
        {
          "internalType": "address",
          "name": "matchJoiner",
          "type": "address"
        }
      ],
      "name": "joinMatch",
      "outputs": [],
      "stateMutability": "payable",
      "type": "function"
    },
    {
      "inputs": [
        {
          "internalType": "string",
          "name": "",
          "type": "string"
        }
      ],
      "name": "matchDetailOf",
      "outputs": [
        {
          "internalType": "enum ChessChainGameplay.MatchStatus",
          "name": "matchStatus",
          "type": "uint8"
        },
        {
          "internalType": "string",
          "name": "matchId",
          "type": "string"
        },
        {
          "internalType": "address",
          "name": "matchCreator",
          "type": "address"
        },
        {
          "internalType": "address",
          "name": "matchJoiner",
          "type": "address"
        },
        {
          "internalType": "uint256",
          "name": "stakeAmount",
          "type": "uint256"
        },
        {
          "internalType": "enum ChessChainGameplay.MatchResult",
          "name": "gameResult",
          "type": "uint8"
        },
        {
          "internalType": "string",
          "name": "matchDataURI",
          "type": "string"
        },
        {
          "internalType": "uint256",
          "name": "nftId",
          "type": "uint256"
        },
        {
          "internalType": "uint256",
          "name": "createTime",
          "type": "uint256"
        },
        {
          "internalType": "uint256",
          "name": "startTime",
          "type": "uint256"
        },
        {
          "internalType": "uint256",
          "name": "endTime",
          "type": "uint256"
        }
      ],
      "stateMutability": "view",
      "type": "function"
    },
    {
      "inputs": [],
      "name": "name",
      "outputs": [
        {
          "internalType": "string",
          "name": "",
          "type": "string"
        }
      ],
      "stateMutability": "view",
      "type": "function"
    },
    {
      "inputs": [],
      "name": "owner",
      "outputs": [
        {
          "internalType": "address",
          "name": "",
          "type": "address"
        }
      ],
      "stateMutability": "view",
      "type": "function"
    },
    {
      "inputs": [
        {
          "internalType": "uint256",
          "name": "tokenId",
          "type": "uint256"
        }
      ],
      "name": "ownerOf",
      "outputs": [
        {
          "internalType": "address",
          "name": "",
          "type": "address"
        }
      ],
      "stateMutability": "view",
      "type": "function"
    },
    {
      "inputs": [],
      "name": "renounceOwnership",
      "outputs": [],
      "stateMutability": "nonpayable",
      "type": "function"
    },
    {
      "inputs": [
        {
          "internalType": "address",
          "name": "from",
          "type": "address"
        },
        {
          "internalType": "address",
          "name": "to",
          "type": "address"
        },
        {
          "internalType": "uint256",
          "name": "tokenId",
          "type": "uint256"
        }
      ],
      "name": "safeTransferFrom",
      "outputs": [],
      "stateMutability": "nonpayable",
      "type": "function"
    },
    {
      "inputs": [
        {
          "internalType": "address",
          "name": "from",
          "type": "address"
        },
        {
          "internalType": "address",
          "name": "to",
          "type": "address"
        },
        {
          "internalType": "uint256",
          "name": "tokenId",
          "type": "uint256"
        },
        {
          "internalType": "bytes",
          "name": "data",
          "type": "bytes"
        }
      ],
      "name": "safeTransferFrom",
      "outputs": [],
      "stateMutability": "nonpayable",
      "type": "function"
    },
    {
      "inputs": [
        {
          "internalType": "address",
          "name": "operator",
          "type": "address"
        },
        {
          "internalType": "bool",
          "name": "approved",
          "type": "bool"
        }
      ],
      "name": "setApprovalForAll",
      "outputs": [],
      "stateMutability": "nonpayable",
      "type": "function"
    },
    {
      "inputs": [
        {
          "internalType": "bytes4",
          "name": "interfaceId",
          "type": "bytes4"
        }
      ],
      "name": "supportsInterface",
      "outputs": [
        {
          "internalType": "bool",
          "name": "",
          "type": "bool"
        }
      ],
      "stateMutability": "view",
      "type": "function"
    },
    {
      "inputs": [],
      "name": "symbol",
      "outputs": [
        {
          "internalType": "string",
          "name": "",
          "type": "string"
        }
      ],
      "stateMutability": "view",
      "type": "function"
    },
    {
      "inputs": [
        {
          "internalType": "uint256",
          "name": "index",
          "type": "uint256"
        }
      ],
      "name": "tokenByIndex",
      "outputs": [
        {
          "internalType": "uint256",
          "name": "",
          "type": "uint256"
        }
      ],
      "stateMutability": "view",
      "type": "function"
    },
    {
      "inputs": [
        {
          "internalType": "address",
          "name": "owner",
          "type": "address"
        },
        {
          "internalType": "uint256",
          "name": "index",
          "type": "uint256"
        }
      ],
      "name": "tokenOfOwnerByIndex",
      "outputs": [
        {
          "internalType": "uint256",
          "name": "",
          "type": "uint256"
        }
      ],
      "stateMutability": "view",
      "type": "function"
    },
    {
      "inputs": [
        {
          "internalType": "uint256",
          "name": "tokenId",
          "type": "uint256"
        }
      ],
      "name": "tokenURI",
      "outputs": [
        {
          "internalType": "string",
          "name": "",
          "type": "string"
        }
      ],
      "stateMutability": "view",
      "type": "function"
    },
    {
      "inputs": [],
      "name": "totalSupply",
      "outputs": [
        {
          "internalType": "uint256",
          "name": "",
          "type": "uint256"
        }
      ],
      "stateMutability": "view",
      "type": "function"
    },
    {
      "inputs": [
        {
          "internalType": "address",
          "name": "from",
          "type": "address"
        },
        {
          "internalType": "address",
          "name": "to",
          "type": "address"
        },
        {
          "internalType": "uint256",
          "name": "tokenId",
          "type": "uint256"
        }
      ],
      "name": "transferFrom",
      "outputs": [],
      "stateMutability": "nonpayable",
      "type": "function"
    },
    {
      "inputs": [
        {
          "internalType": "address",
          "name": "newOwner",
          "type": "address"
        }
      ],
      "name": "transferOwnership",
      "outputs": [],
      "stateMutability": "nonpayable",
      "type": "function"
    },
    {
      "inputs": [
        {
          "internalType": "address",
          "name": "_owner",
          "type": "address"
        }
      ],
      "name": "walletOfOwner",
      "outputs": [
        {
          "internalType": "uint256[]",
          "name": "",
          "type": "uint256[]"
        }
      ],
      "stateMutability": "view",
      "type": "function"
    },
    {
      "inputs": [
        {
          "internalType": "address",
          "name": "_owner",
          "type": "address"
        }
      ],
      "name": "walletOfOwnerURIs",
      "outputs": [
        {
          "internalType": "string[]",
          "name": "",
          "type": "string[]"
        }
      ],
      "stateMutability": "view",
      "type": "function"
    }
  ],
  "bytecode": "0x60806040526002600e553480156200001657600080fd5b506040518060400160405280600d81526020017f4368657373436861696e4e4654000000000000000000000000000000000000008152506040518060400160405280600381526020017f43434e0000000000000000000000000000000000000000000000000000000000815250620000a362000097620000e560201b60201c565b620000ed60201b60201c565b8160019080519060200190620000bb929190620001b1565b508060029080519060200190620000d4929190620001b1565b5050506001600781905550620002c6565b600033905090565b60008060009054906101000a900473ffffffffffffffffffffffffffffffffffffffff169050816000806101000a81548173ffffffffffffffffffffffffffffffffffffffff021916908373ffffffffffffffffffffffffffffffffffffffff1602179055508173ffffffffffffffffffffffffffffffffffffffff168173ffffffffffffffffffffffffffffffffffffffff167f8be0079c531659141344cd1fd0a4f28419497f9722a3daafe3b4186f6b6457e060405160405180910390a35050565b828054620001bf9062000290565b90600052602060002090601f016020900481019282620001e357600085556200022f565b82601f10620001fe57805160ff19168380011785556200022f565b828001600101855582156200022f579182015b828111156200022e57825182559160200191906001019062000211565b5b5090506200023e919062000242565b5090565b5b808211156200025d57600081600090555060010162000243565b5090565b7f4e487b7100000000000000000000000000000000000000000000000000000000600052602260045260246000fd5b60006002820490506001821680620002a957607f821691505b60208210811415620002c057620002bf62000261565b5b50919050565b61510280620002d66000396000f3fe6080604052600436106101815760003560e01c80636352211e116100d1578063a22cb4651161008a578063c87b56dd11610064578063c87b56dd1461058a578063d39a307d146105c7578063e985e9c51461060e578063f2fde38b1461064b57610181565b8063a22cb4651461051c578063b88d4fde14610545578063c8175c6b1461056e57610181565b80636352211e1461040a57806370a0823114610447578063715018a6146104845780638bba22001461049b5780638da5cb5b146104c657806395d89b41146104f157610181565b80632f745c591161013e57806342842e0e1161011857806342842e0e1461034b578063438b6300146103745780634f6ccce7146103b15780635deca751146103ee57610181565b80632f745c59146102a857806330482105146102e55780633c3a690d1461032257610181565b806301ffc9a71461018657806306fdde03146101c3578063081812fc146101ee578063095ea7b31461022b57806318160ddd1461025457806323b872dd1461027f575b600080fd5b34801561019257600080fd5b506101ad60048036038101906101a89190613552565b610674565b6040516101ba919061359a565b60405180910390f35b3480156101cf57600080fd5b506101d8610686565b6040516101e5919061364e565b60405180910390f35b3480156101fa57600080fd5b50610215600480360381019061021091906136a6565b610718565b6040516102229190613714565b60405180910390f35b34801561023757600080fd5b50610252600480360381019061024d919061375b565b61075e565b005b34801561026057600080fd5b50610269610876565b60405161027691906137aa565b60405180910390f35b34801561028b57600080fd5b506102a660048036038101906102a191906137c5565b610883565b005b3480156102b457600080fd5b506102cf60048036038101906102ca919061375b565b6108e3565b6040516102dc91906137aa565b60405180910390f35b3480156102f157600080fd5b5061030c60048036038101906103079190613818565b610988565b6040516103199190613951565b60405180910390f35b34801561032e57600080fd5b5061034960048036038101906103449190613acd565b610a42565b005b34801561035757600080fd5b50610372600480360381019061036d91906137c5565b611089565b005b34801561038057600080fd5b5061039b60048036038101906103969190613818565b6110a9565b6040516103a89190613c46565b60405180910390f35b3480156103bd57600080fd5b506103d860048036038101906103d391906136a6565b611157565b6040516103e591906137aa565b60405180910390f35b61040860048036038101906104039190613c68565b6111c8565b005b34801561041657600080fd5b50610431600480360381019061042c91906136a6565b611435565b60405161043e9190613714565b60405180910390f35b34801561045357600080fd5b5061046e60048036038101906104699190613818565b6114bc565b60405161047b91906137aa565b60405180910390f35b34801561049057600080fd5b50610499611574565b005b3480156104a757600080fd5b506104b0611588565b6040516104bd91906137aa565b60405180910390f35b3480156104d257600080fd5b506104db61158e565b6040516104e89190613714565b60405180910390f35b3480156104fd57600080fd5b506105066115b7565b604051610513919061364e565b60405180910390f35b34801561052857600080fd5b50610543600480360381019061053e9190613d03565b611649565b005b34801561055157600080fd5b5061056c60048036038101906105679190613de4565b61165f565b005b61058860048036038101906105839190613e67565b6116c1565b005b34801561059657600080fd5b506105b160048036038101906105ac91906136a6565b6118e7565b6040516105be919061364e565b60405180910390f35b3480156105d357600080fd5b506105ee60048036038101906105e99190613ec3565b6118f9565b6040516106059b9a99989796959493929190613fcb565b60405180910390f35b34801561061a57600080fd5b5061063560048036038101906106309190614084565b611ad3565b604051610642919061359a565b60405180910390f35b34801561065757600080fd5b50610672600480360381019061066d9190613818565b611b67565b005b600061067f82611beb565b9050919050565b606060018054610695906140f3565b80601f01602080910402602001604051908101604052809291908181526020018280546106c1906140f3565b801561070e5780601f106106e35761010080835404028352916020019161070e565b820191906000526020600020905b8154815290600101906020018083116106f157829003601f168201915b5050505050905090565b600061072382611c65565b6005600083815260200190815260200160002060009054906101000a900473ffffffffffffffffffffffffffffffffffffffff169050919050565b600061076982611435565b90508073ffffffffffffffffffffffffffffffffffffffff168373ffffffffffffffffffffffffffffffffffffffff1614156107da576040517f08c379a00000000000000000000000000000000000000000000000000000000081526004016107d190614197565b60405180910390fd5b8073ffffffffffffffffffffffffffffffffffffffff166107f9611cb0565b73ffffffffffffffffffffffffffffffffffffffff161480610828575061082781610822611cb0565b611ad3565b5b610867576040517f08c379a000000000000000000000000000000000000000000000000000000000815260040161085e90614229565b60405180910390fd5b6108718383611cb8565b505050565b6000600b80549050905090565b61089461088e611cb0565b82611d71565b6108d3576040517f08c379a00000000000000000000000000000000000000000000000000000000081526004016108ca906142bb565b60405180910390fd5b6108de838383611e06565b505050565b60006108ee836114bc565b821061092f576040517f08c379a00000000000000000000000000000000000000000000000000000000081526004016109269061434d565b60405180910390fd5b600960008473ffffffffffffffffffffffffffffffffffffffff1673ffffffffffffffffffffffffffffffffffffffff168152602001908152602001600020600083815260200190815260200160002054905092915050565b60606000610995836114bc565b905060008167ffffffffffffffff8111156109b3576109b261397d565b5b6040519080825280602002602001820160405280156109e657816020015b60608152602001906001900390816109d15790505b50905060005b82811015610a3757610a06610a0186836108e3565b6118e7565b828281518110610a1957610a1861436d565b5b60200260200101819052508080610a2f906143cb565b9150506109ec565b508092505050919050565b60026003811115610a5657610a55613f0c565b5b600d85604051610a669190614450565b908152602001604051809103902060000160009054906101000a900460ff166003811115610a9757610a96613f0c565b5b14610ad7576040517f08c379a0000000000000000000000000000000000000000000000000000000008152600401610ace906144d9565b60405180910390fd5b600d84604051610ae79190614450565b908152602001604051809103902060020160009054906101000a900473ffffffffffffffffffffffffffffffffffffffff1673ffffffffffffffffffffffffffffffffffffffff163373ffffffffffffffffffffffffffffffffffffffff161480610bbe5750600d84604051610b5d9190614450565b908152602001604051809103902060030160009054906101000a900473ffffffffffffffffffffffffffffffffffffffff1673ffffffffffffffffffffffffffffffffffffffff163373ffffffffffffffffffffffffffffffffffffffff16145b610bfd576040517f08c379a0000000000000000000000000000000000000000000000000000000008152600401610bf49061456b565b60405180910390fd5b6003600d85604051610c0f9190614450565b908152602001604051809103902060000160006101000a81548160ff02191690836003811115610c4257610c41613f0c565b5b021790555080600d85604051610c589190614450565b908152602001604051809103902060050160006101000a81548160ff02191690836002811115610c8b57610c8a613f0c565b5b021790555082600d85604051610ca19190614450565b90815260200160405180910390206006019080519060200190610cc5929190613443565b5042600d85604051610cd79190614450565b9081526020016040518091039020600a01819055506000600280811115610d0157610d00613f0c565b5b826002811115610d1457610d13613f0c565b5b1415610df757610d86600d86604051610d2d9190614450565b908152602001604051809103902060020160009054906101000a900473ffffffffffffffffffffffffffffffffffffffff16600d87604051610d6f9190614450565b908152602001604051809103902060040154612100565b610df2600d86604051610d999190614450565b908152602001604051809103902060030160009054906101000a900473ffffffffffffffffffffffffffffffffffffffff16600d87604051610ddb9190614450565b908152602001604051809103902060040154612100565b610ee1565b60006002811115610e0b57610e0a613f0c565b5b826002811115610e1e57610e1d613f0c565b5b1415610e6d57600d85604051610e349190614450565b908152602001604051809103902060020160009054906101000a900473ffffffffffffffffffffffffffffffffffffffff169050610ee0565b60016002811115610e8157610e80613f0c565b5b826002811115610e9457610e93613f0c565b5b1415610edf57600d85604051610eaa9190614450565b908152602001604051809103902060030160009054906101000a900473ffffffffffffffffffffffffffffffffffffffff1690505b5b5b600073ffffffffffffffffffffffffffffffffffffffff168173ffffffffffffffffffffffffffffffffffffffff1614610f83576000610f2182856121c1565b905080600d87604051610f349190614450565b908152602001604051809103902060070181905550610f8182600d88604051610f5d9190614450565b908152602001604051809103902060040154600e54610f7c919061458b565b612100565b505b600d85604051610f939190614450565b908152602001604051809103902060030160009054906101000a900473ffffffffffffffffffffffffffffffffffffffff1673ffffffffffffffffffffffffffffffffffffffff16600d86604051610feb9190614450565b908152602001604051809103902060020160009054906101000a900473ffffffffffffffffffffffffffffffffffffffff1673ffffffffffffffffffffffffffffffffffffffff16866040516110419190614450565b60405180910390207faf90ab4ca13294a1c7cb51db93cd861b70bb7f76b3ca29fae1f132d4e6643273858860405161107a9291906145e5565b60405180910390a45050505050565b6110a48383836040518060200160405280600081525061165f565b505050565b606060006110b6836114bc565b905060008167ffffffffffffffff8111156110d4576110d361397d565b5b6040519080825280602002602001820160405280156111025781602001602082028036833780820191505090505b50905060005b8281101561114c5761111a85826108e3565b82828151811061112d5761112c61436d565b5b6020026020010181815250508080611144906143cb565b915050611108565b508092505050919050565b6000611161610876565b82106111a2576040517f08c379a000000000000000000000000000000000000000000000000000000000815260040161119990614687565b60405180910390fd5b600b82815481106111b6576111b561436d565b5b90600052602060002001549050919050565b600060038111156111dc576111db613f0c565b5b600d846040516111ec9190614450565b908152602001604051809103902060000160009054906101000a900460ff16600381111561121d5761121c613f0c565b5b1461125d576040517f08c379a000000000000000000000000000000000000000000000000000000000815260040161125490614719565b60405180910390fd5b803410156112a0576040517f08c379a000000000000000000000000000000000000000000000000000000000815260040161129790614785565b60405180910390fd5b6001600d846040516112b29190614450565b908152602001604051809103902060000160006101000a81548160ff021916908360038111156112e5576112e4613f0c565b5b021790555082600d846040516112fb9190614450565b9081526020016040518091039020600101908051906020019061131f929190613443565b5081600d846040516113319190614450565b908152602001604051809103902060020160006101000a81548173ffffffffffffffffffffffffffffffffffffffff021916908373ffffffffffffffffffffffffffffffffffffffff16021790555080600d846040516113919190614450565b90815260200160405180910390206004018190555042600d846040516113b79190614450565b9081526020016040518091039020600801819055508173ffffffffffffffffffffffffffffffffffffffff16836040516113f19190614450565b60405180910390207f5467597a96a4ef53bccdf1e6e625595e100c0c2e7cf48bb39397b67e2fc91ebc8360405161142891906137aa565b60405180910390a3505050565b600080611441836121fe565b9050600073ffffffffffffffffffffffffffffffffffffffff168173ffffffffffffffffffffffffffffffffffffffff1614156114b3576040517f08c379a00000000000000000000000000000000000000000000000000000000081526004016114aa906147f1565b60405180910390fd5b80915050919050565b60008073ffffffffffffffffffffffffffffffffffffffff168273ffffffffffffffffffffffffffffffffffffffff16141561152d576040517f08c379a000000000000000000000000000000000000000000000000000000000815260040161152490614883565b60405180910390fd5b600460008373ffffffffffffffffffffffffffffffffffffffff1673ffffffffffffffffffffffffffffffffffffffff168152602001908152602001600020549050919050565b61157c61223b565b61158660006122b9565b565b600e5481565b60008060009054906101000a900473ffffffffffffffffffffffffffffffffffffffff16905090565b6060600280546115c6906140f3565b80601f01602080910402602001604051908101604052809291908181526020018280546115f2906140f3565b801561163f5780601f106116145761010080835404028352916020019161163f565b820191906000526020600020905b81548152906001019060200180831161162257829003601f168201915b5050505050905090565b61165b611654611cb0565b838361237d565b5050565b61167061166a611cb0565b83611d71565b6116af576040517f08c379a00000000000000000000000000000000000000000000000000000000081526004016116a6906142bb565b60405180910390fd5b6116bb848484846124ea565b50505050565b600160038111156116d5576116d4613f0c565b5b600d836040516116e59190614450565b908152602001604051809103902060000160009054906101000a900460ff16600381111561171657611715613f0c565b5b14611756576040517f08c379a000000000000000000000000000000000000000000000000000000000815260040161174d906144d9565b60405180910390fd5b600d826040516117669190614450565b9081526020016040518091039020600401543410156117ba576040517f08c379a00000000000000000000000000000000000000000000000000000000081526004016117b190614785565b60405180910390fd5b6002600d836040516117cc9190614450565b908152602001604051809103902060000160006101000a81548160ff021916908360038111156117ff576117fe613f0c565b5b021790555080600d836040516118159190614450565b908152602001604051809103902060030160006101000a81548173ffffffffffffffffffffffffffffffffffffffff021916908373ffffffffffffffffffffffffffffffffffffffff16021790555042600d836040516118759190614450565b9081526020016040518091039020600901819055508073ffffffffffffffffffffffffffffffffffffffff16826040516118af9190614450565b60405180910390207f78c50c7585fab61f8b91196a049fafa00fba942de8996f59dcbddc7e00ccde0e60405160405180910390a35050565b60606118f282612546565b9050919050565b600d818051602081018201805184825260208301602085012081835280955050505050506000915090508060000160009054906101000a900460ff1690806001018054611945906140f3565b80601f0160208091040260200160405190810160405280929190818152602001828054611971906140f3565b80156119be5780601f10611993576101008083540402835291602001916119be565b820191906000526020600020905b8154815290600101906020018083116119a157829003601f168201915b5050505050908060020160009054906101000a900473ffffffffffffffffffffffffffffffffffffffff16908060030160009054906101000a900473ffffffffffffffffffffffffffffffffffffffff16908060040154908060050160009054906101000a900460ff1690806006018054611a38906140f3565b80601f0160208091040260200160405190810160405280929190818152602001828054611a64906140f3565b8015611ab15780601f10611a8657610100808354040283529160200191611ab1565b820191906000526020600020905b815481529060010190602001808311611a9457829003601f168201915b50505050509080600701549080600801549080600901549080600a015490508b565b6000600660008473ffffffffffffffffffffffffffffffffffffffff1673ffffffffffffffffffffffffffffffffffffffff16815260200190815260200160002060008373ffffffffffffffffffffffffffffffffffffffff1673ffffffffffffffffffffffffffffffffffffffff16815260200190815260200160002060009054906101000a900460ff16905092915050565b611b6f61223b565b600073ffffffffffffffffffffffffffffffffffffffff168173ffffffffffffffffffffffffffffffffffffffff161415611bdf576040517f08c379a0000000000000000000000000000000000000000000000000000000008152600401611bd690614915565b60405180910390fd5b611be8816122b9565b50565b60007f780e9d63000000000000000000000000000000000000000000000000000000007bffffffffffffffffffffffffffffffffffffffffffffffffffffffff1916827bffffffffffffffffffffffffffffffffffffffffffffffffffffffff19161480611c5e5750611c5d82612659565b5b9050919050565b611c6e816126ba565b611cad576040517f08c379a0000000000000000000000000000000000000000000000000000000008152600401611ca4906147f1565b60405180910390fd5b50565b600033905090565b816005600083815260200190815260200160002060006101000a81548173ffffffffffffffffffffffffffffffffffffffff021916908373ffffffffffffffffffffffffffffffffffffffff160217905550808273ffffffffffffffffffffffffffffffffffffffff16611d2b83611435565b73ffffffffffffffffffffffffffffffffffffffff167f8c5be1e5ebec7d5bd14f71427d1e84f3dd0314c0f7b2291e5b200ac8c7c3b92560405160405180910390a45050565b600080611d7d83611435565b90508073ffffffffffffffffffffffffffffffffffffffff168473ffffffffffffffffffffffffffffffffffffffff161480611dbf5750611dbe8185611ad3565b5b80611dfd57508373ffffffffffffffffffffffffffffffffffffffff16611de584610718565b73ffffffffffffffffffffffffffffffffffffffff16145b91505092915050565b8273ffffffffffffffffffffffffffffffffffffffff16611e2682611435565b73ffffffffffffffffffffffffffffffffffffffff1614611e7c576040517f08c379a0000000000000000000000000000000000000000000000000000000008152600401611e73906149a7565b60405180910390fd5b600073ffffffffffffffffffffffffffffffffffffffff168273ffffffffffffffffffffffffffffffffffffffff161415611eec576040517f08c379a0000000000000000000000000000000000000000000000000000000008152600401611ee390614a39565b60405180910390fd5b611ef983838360016126fb565b8273ffffffffffffffffffffffffffffffffffffffff16611f1982611435565b73ffffffffffffffffffffffffffffffffffffffff1614611f6f576040517f08c379a0000000000000000000000000000000000000000000000000000000008152600401611f66906149a7565b60405180910390fd5b6005600082815260200190815260200160002060006101000a81549073ffffffffffffffffffffffffffffffffffffffff02191690556001600460008573ffffffffffffffffffffffffffffffffffffffff1673ffffffffffffffffffffffffffffffffffffffff168152602001908152602001600020600082825403925050819055506001600460008473ffffffffffffffffffffffffffffffffffffffff1673ffffffffffffffffffffffffffffffffffffffff16815260200190815260200160002060008282540192505081905550816003600083815260200190815260200160002060006101000a81548173ffffffffffffffffffffffffffffffffffffffff021916908373ffffffffffffffffffffffffffffffffffffffff160217905550808273ffffffffffffffffffffffffffffffffffffffff168473ffffffffffffffffffffffffffffffffffffffff167fddf252ad1be2c89b69c2b068fc378daa952ba7f163c4a11628f55a4df523b3ef60405160405180910390a46120fb838383600161270d565b505050565b612108612713565b60008273ffffffffffffffffffffffffffffffffffffffff168260405161212e90614a8a565b60006040518083038185875af1925050503d806000811461216b576040519150601f19603f3d011682016040523d82523d6000602084013e612170565b606091505b50509050806121b4576040517f08c379a00000000000000000000000000000000000000000000000000000000081526004016121ab90614aeb565b60405180910390fd5b506121bd612763565b5050565b6000806121cc610876565b905060006001826121dd9190614b0b565b90506121e9858261276d565b6121f3818561298b565b809250505092915050565b60006003600083815260200190815260200160002060009054906101000a900473ffffffffffffffffffffffffffffffffffffffff169050919050565b612243611cb0565b73ffffffffffffffffffffffffffffffffffffffff1661226161158e565b73ffffffffffffffffffffffffffffffffffffffff16146122b7576040517f08c379a00000000000000000000000000000000000000000000000000000000081526004016122ae90614bad565b60405180910390fd5b565b60008060009054906101000a900473ffffffffffffffffffffffffffffffffffffffff169050816000806101000a81548173ffffffffffffffffffffffffffffffffffffffff021916908373ffffffffffffffffffffffffffffffffffffffff1602179055508173ffffffffffffffffffffffffffffffffffffffff168173ffffffffffffffffffffffffffffffffffffffff167f8be0079c531659141344cd1fd0a4f28419497f9722a3daafe3b4186f6b6457e060405160405180910390a35050565b8173ffffffffffffffffffffffffffffffffffffffff168373ffffffffffffffffffffffffffffffffffffffff1614156123ec576040517f08c379a00000000000000000000000000000000000000000000000000000000081526004016123e390614c19565b60405180910390fd5b80600660008573ffffffffffffffffffffffffffffffffffffffff1673ffffffffffffffffffffffffffffffffffffffff16815260200190815260200160002060008473ffffffffffffffffffffffffffffffffffffffff1673ffffffffffffffffffffffffffffffffffffffff16815260200190815260200160002060006101000a81548160ff0219169083151502179055508173ffffffffffffffffffffffffffffffffffffffff168373ffffffffffffffffffffffffffffffffffffffff167f17307eab39ab6107e8899845ad3d59bd9653f200f220920489ca2b5937696c31836040516124dd919061359a565b60405180910390a3505050565b6124f5848484611e06565b61250184848484612a36565b612540576040517f08c379a000000000000000000000000000000000000000000000000000000000815260040161253790614cab565b60405180910390fd5b50505050565b606061255182611c65565b6000600860008481526020019081526020016000208054612571906140f3565b80601f016020809104026020016040519081016040528092919081815260200182805461259d906140f3565b80156125ea5780601f106125bf576101008083540402835291602001916125ea565b820191906000526020600020905b8154815290600101906020018083116125cd57829003601f168201915b5050505050905060006125fb612bbe565b9050600081511415612611578192505050612654565b60008251111561264657808260405160200161262e929190614ccb565b60405160208183030381529060405292505050612654565b61264f84612bd5565b925050505b919050565b6000634906490660e01b7bffffffffffffffffffffffffffffffffffffffffffffffffffffffff1916827bffffffffffffffffffffffffffffffffffffffffffffffffffffffff191614806126b357506126b282612c3d565b5b9050919050565b60008073ffffffffffffffffffffffffffffffffffffffff166126dc836121fe565b73ffffffffffffffffffffffffffffffffffffffff1614159050919050565b61270784848484612d1f565b50505050565b50505050565b60026007541415612759576040517f08c379a000000000000000000000000000000000000000000000000000000000815260040161275090614d3b565b60405180910390fd5b6002600781905550565b6001600781905550565b600073ffffffffffffffffffffffffffffffffffffffff168273ffffffffffffffffffffffffffffffffffffffff1614156127dd576040517f08c379a00000000000000000000000000000000000000000000000000000000081526004016127d490614da7565b60405180910390fd5b6127e6816126ba565b15612826576040517f08c379a000000000000000000000000000000000000000000000000000000000815260040161281d90614e13565b60405180910390fd5b6128346000838360016126fb565b61283d816126ba565b1561287d576040517f08c379a000000000000000000000000000000000000000000000000000000000815260040161287490614e13565b60405180910390fd5b6001600460008473ffffffffffffffffffffffffffffffffffffffff1673ffffffffffffffffffffffffffffffffffffffff16815260200190815260200160002060008282540192505081905550816003600083815260200190815260200160002060006101000a81548173ffffffffffffffffffffffffffffffffffffffff021916908373ffffffffffffffffffffffffffffffffffffffff160217905550808273ffffffffffffffffffffffffffffffffffffffff16600073ffffffffffffffffffffffffffffffffffffffff167fddf252ad1be2c89b69c2b068fc378daa952ba7f163c4a11628f55a4df523b3ef60405160405180910390a461298760008383600161270d565b5050565b612994826126ba565b6129d3576040517f08c379a00000000000000000000000000000000000000000000000000000000081526004016129ca90614ea5565b60405180910390fd5b806008600084815260200190815260200160002090805190602001906129fa929190613443565b507ff8e1a15aba9398e019f0b49df1a4fde98ee17ae345cb5f6b5e2c27f5033e8ce782604051612a2a91906137aa565b60405180910390a15050565b6000612a578473ffffffffffffffffffffffffffffffffffffffff16612e7f565b15612bb1578373ffffffffffffffffffffffffffffffffffffffff1663150b7a02612a80611cb0565b8786866040518563ffffffff1660e01b8152600401612aa29493929190614f1a565b6020604051808303816000875af1925050508015612ade57506040513d601f19601f82011682018060405250810190612adb9190614f7b565b60015b612b61573d8060008114612b0e576040519150601f19603f3d011682016040523d82523d6000602084013e612b13565b606091505b50600081511415612b59576040517f08c379a0000000000000000000000000000000000000000000000000000000008152600401612b5090614cab565b60405180910390fd5b805181602001fd5b63150b7a0260e01b7bffffffffffffffffffffffffffffffffffffffffffffffffffffffff1916817bffffffffffffffffffffffffffffffffffffffffffffffffffffffff191614915050612bb6565b600190505b949350505050565b606060405180602001604052806000815250905090565b6060612be082611c65565b6000612bea612bbe565b90506000815111612c0a5760405180602001604052806000815250612c35565b80612c1484612ea2565b604051602001612c25929190614ccb565b6040516020818303038152906040525b915050919050565b60007f80ac58cd000000000000000000000000000000000000000000000000000000007bffffffffffffffffffffffffffffffffffffffffffffffffffffffff1916827bffffffffffffffffffffffffffffffffffffffffffffffffffffffff19161480612d0857507f5b5e139f000000000000000000000000000000000000000000000000000000007bffffffffffffffffffffffffffffffffffffffffffffffffffffffff1916827bffffffffffffffffffffffffffffffffffffffffffffffffffffffff1916145b80612d185750612d1782612f7a565b5b9050919050565b612d2b84848484612fe4565b6001811115612d6f576040517f08c379a0000000000000000000000000000000000000000000000000000000008152600401612d669061501a565b60405180910390fd5b6000829050600073ffffffffffffffffffffffffffffffffffffffff168573ffffffffffffffffffffffffffffffffffffffff161415612db757612db281612fea565b612df6565b8373ffffffffffffffffffffffffffffffffffffffff168573ffffffffffffffffffffffffffffffffffffffff1614612df557612df48582613033565b5b5b600073ffffffffffffffffffffffffffffffffffffffff168473ffffffffffffffffffffffffffffffffffffffff161415612e3957612e34816131a0565b612e78565b8473ffffffffffffffffffffffffffffffffffffffff168473ffffffffffffffffffffffffffffffffffffffff1614612e7757612e768482613271565b5b5b5050505050565b6000808273ffffffffffffffffffffffffffffffffffffffff163b119050919050565b606060006001612eb1846132f0565b01905060008167ffffffffffffffff811115612ed057612ecf61397d565b5b6040519080825280601f01601f191660200182016040528015612f025781602001600182028036833780820191505090505b509050600082602001820190505b600115612f6f578080600190039150507f3031323334353637383961626364656600000000000000000000000000000000600a86061a8153600a8581612f5957612f5861503a565b5b0494506000851415612f6a57612f6f565b612f10565b819350505050919050565b60007f01ffc9a7000000000000000000000000000000000000000000000000000000007bffffffffffffffffffffffffffffffffffffffffffffffffffffffff1916827bffffffffffffffffffffffffffffffffffffffffffffffffffffffff1916149050919050565b50505050565b600b80549050600c600083815260200190815260200160002081905550600b81908060018154018082558091505060019003906000526020600020016000909190919091505550565b60006001613040846114bc565b61304a9190615069565b90506000600a600084815260200190815260200160002054905081811461312f576000600960008673ffffffffffffffffffffffffffffffffffffffff1673ffffffffffffffffffffffffffffffffffffffff168152602001908152602001600020600084815260200190815260200160002054905080600960008773ffffffffffffffffffffffffffffffffffffffff1673ffffffffffffffffffffffffffffffffffffffff16815260200190815260200160002060008481526020019081526020016000208190555081600a600083815260200190815260200160002081905550505b600a600084815260200190815260200160002060009055600960008573ffffffffffffffffffffffffffffffffffffffff1673ffffffffffffffffffffffffffffffffffffffff16815260200190815260200160002060008381526020019081526020016000206000905550505050565b60006001600b805490506131b49190615069565b90506000600c60008481526020019081526020016000205490506000600b83815481106131e4576131e361436d565b5b9060005260206000200154905080600b83815481106132065761320561436d565b5b906000526020600020018190555081600c600083815260200190815260200160002081905550600c600085815260200190815260200160002060009055600b8054806132555761325461509d565b5b6001900381819060005260206000200160009055905550505050565b600061327c836114bc565b905081600960008573ffffffffffffffffffffffffffffffffffffffff1673ffffffffffffffffffffffffffffffffffffffff16815260200190815260200160002060008381526020019081526020016000208190555080600a600084815260200190815260200160002081905550505050565b600080600090507a184f03e93ff9f4daa797ed6e38ed64bf6a1f010000000000000000831061334e577a184f03e93ff9f4daa797ed6e38ed64bf6a1f01000000000000000083816133445761334361503a565b5b0492506040810190505b6d04ee2d6d415b85acef8100000000831061338b576d04ee2d6d415b85acef810000000083816133815761338061503a565b5b0492506020810190505b662386f26fc1000083106133ba57662386f26fc1000083816133b0576133af61503a565b5b0492506010810190505b6305f5e10083106133e3576305f5e10083816133d9576133d861503a565b5b0492506008810190505b61271083106134085761271083816133fe576133fd61503a565b5b0492506004810190505b6064831061342b57606483816134215761342061503a565b5b0492506002810190505b600a831061343a576001810190505b80915050919050565b82805461344f906140f3565b90600052602060002090601f01602090048101928261347157600085556134b8565b82601f1061348a57805160ff19168380011785556134b8565b828001600101855582156134b8579182015b828111156134b757825182559160200191906001019061349c565b5b5090506134c591906134c9565b5090565b5b808211156134e25760008160009055506001016134ca565b5090565b6000604051905090565b600080fd5b600080fd5b60007fffffffff0000000000000000000000000000000000000000000000000000000082169050919050565b61352f816134fa565b811461353a57600080fd5b50565b60008135905061354c81613526565b92915050565b600060208284031215613568576135676134f0565b5b60006135768482850161353d565b91505092915050565b60008115159050919050565b6135948161357f565b82525050565b60006020820190506135af600083018461358b565b92915050565b600081519050919050565b600082825260208201905092915050565b60005b838110156135ef5780820151818401526020810190506135d4565b838111156135fe576000848401525b50505050565b6000601f19601f8301169050919050565b6000613620826135b5565b61362a81856135c0565b935061363a8185602086016135d1565b61364381613604565b840191505092915050565b600060208201905081810360008301526136688184613615565b905092915050565b6000819050919050565b61368381613670565b811461368e57600080fd5b50565b6000813590506136a08161367a565b92915050565b6000602082840312156136bc576136bb6134f0565b5b60006136ca84828501613691565b91505092915050565b600073ffffffffffffffffffffffffffffffffffffffff82169050919050565b60006136fe826136d3565b9050919050565b61370e816136f3565b82525050565b60006020820190506137296000830184613705565b92915050565b613738816136f3565b811461374357600080fd5b50565b6000813590506137558161372f565b92915050565b60008060408385031215613772576137716134f0565b5b600061378085828601613746565b925050602061379185828601613691565b9150509250929050565b6137a481613670565b82525050565b60006020820190506137bf600083018461379b565b92915050565b6000806000606084860312156137de576137dd6134f0565b5b60006137ec86828701613746565b93505060206137fd86828701613746565b925050604061380e86828701613691565b9150509250925092565b60006020828403121561382e5761382d6134f0565b5b600061383c84828501613746565b91505092915050565b600081519050919050565b600082825260208201905092915050565b6000819050602082019050919050565b600082825260208201905092915050565b600061388d826135b5565b6138978185613871565b93506138a78185602086016135d1565b6138b081613604565b840191505092915050565b60006138c78383613882565b905092915050565b6000602082019050919050565b60006138e782613845565b6138f18185613850565b93508360208202850161390385613861565b8060005b8581101561393f578484038952815161392085826138bb565b945061392b836138cf565b925060208a01995050600181019050613907565b50829750879550505050505092915050565b6000602082019050818103600083015261396b81846138dc565b905092915050565b600080fd5b600080fd5b7f4e487b7100000000000000000000000000000000000000000000000000000000600052604160045260246000fd5b6139b582613604565b810181811067ffffffffffffffff821117156139d4576139d361397d565b5b80604052505050565b60006139e76134e6565b90506139f382826139ac565b919050565b600067ffffffffffffffff821115613a1357613a1261397d565b5b613a1c82613604565b9050602081019050919050565b82818337600083830152505050565b6000613a4b613a46846139f8565b6139dd565b905082815260208101848484011115613a6757613a66613978565b5b613a72848285613a29565b509392505050565b600082601f830112613a8f57613a8e613973565b5b8135613a9f848260208601613a38565b91505092915050565b60038110613ab557600080fd5b50565b600081359050613ac781613aa8565b92915050565b60008060008060808587031215613ae757613ae66134f0565b5b600085013567ffffffffffffffff811115613b0557613b046134f5565b5b613b1187828801613a7a565b945050602085013567ffffffffffffffff811115613b3257613b316134f5565b5b613b3e87828801613a7a565b935050604085013567ffffffffffffffff811115613b5f57613b5e6134f5565b5b613b6b87828801613a7a565b9250506060613b7c87828801613ab8565b91505092959194509250565b600081519050919050565b600082825260208201905092915050565b6000819050602082019050919050565b613bbd81613670565b82525050565b6000613bcf8383613bb4565b60208301905092915050565b6000602082019050919050565b6000613bf382613b88565b613bfd8185613b93565b9350613c0883613ba4565b8060005b83811015613c39578151613c208882613bc3565b9750613c2b83613bdb565b925050600181019050613c0c565b5085935050505092915050565b60006020820190508181036000830152613c608184613be8565b905092915050565b600080600060608486031215613c8157613c806134f0565b5b600084013567ffffffffffffffff811115613c9f57613c9e6134f5565b5b613cab86828701613a7a565b9350506020613cbc86828701613746565b9250506040613ccd86828701613691565b9150509250925092565b613ce08161357f565b8114613ceb57600080fd5b50565b600081359050613cfd81613cd7565b92915050565b60008060408385031215613d1a57613d196134f0565b5b6000613d2885828601613746565b9250506020613d3985828601613cee565b9150509250929050565b600067ffffffffffffffff821115613d5e57613d5d61397d565b5b613d6782613604565b9050602081019050919050565b6000613d87613d8284613d43565b6139dd565b905082815260208101848484011115613da357613da2613978565b5b613dae848285613a29565b509392505050565b600082601f830112613dcb57613dca613973565b5b8135613ddb848260208601613d74565b91505092915050565b60008060008060808587031215613dfe57613dfd6134f0565b5b6000613e0c87828801613746565b9450506020613e1d87828801613746565b9350506040613e2e87828801613691565b925050606085013567ffffffffffffffff811115613e4f57613e4e6134f5565b5b613e5b87828801613db6565b91505092959194509250565b60008060408385031215613e7e57613e7d6134f0565b5b600083013567ffffffffffffffff811115613e9c57613e9b6134f5565b5b613ea885828601613a7a565b9250506020613eb985828601613746565b9150509250929050565b600060208284031215613ed957613ed86134f0565b5b600082013567ffffffffffffffff811115613ef757613ef66134f5565b5b613f0384828501613a7a565b91505092915050565b7f4e487b7100000000000000000000000000000000000000000000000000000000600052602160045260246000fd5b60048110613f4c57613f4b613f0c565b5b50565b6000819050613f5d82613f3b565b919050565b6000613f6d82613f4f565b9050919050565b613f7d81613f62565b82525050565b60038110613f9457613f93613f0c565b5b50565b6000819050613fa582613f83565b919050565b6000613fb582613f97565b9050919050565b613fc581613faa565b82525050565b600061016082019050613fe1600083018e613f74565b8181036020830152613ff3818d613615565b9050614002604083018c613705565b61400f606083018b613705565b61401c608083018a61379b565b61402960a0830189613fbc565b81810360c083015261403b8188613615565b905061404a60e083018761379b565b61405861010083018661379b565b61406661012083018561379b565b61407461014083018461379b565b9c9b505050505050505050505050565b6000806040838503121561409b5761409a6134f0565b5b60006140a985828601613746565b92505060206140ba85828601613746565b9150509250929050565b7f4e487b7100000000000000000000000000000000000000000000000000000000600052602260045260246000fd5b6000600282049050600182168061410b57607f821691505b6020821081141561411f5761411e6140c4565b5b50919050565b7f4552433732313a20617070726f76616c20746f2063757272656e74206f776e6560008201527f7200000000000000000000000000000000000000000000000000000000000000602082015250565b60006141816021836135c0565b915061418c82614125565b604082019050919050565b600060208201905081810360008301526141b081614174565b9050919050565b7f4552433732313a20617070726f76652063616c6c6572206973206e6f7420746f60008201527f6b656e206f776e6572206f7220617070726f76656420666f7220616c6c000000602082015250565b6000614213603d836135c0565b915061421e826141b7565b604082019050919050565b6000602082019050818103600083015261424281614206565b9050919050565b7f4552433732313a2063616c6c6572206973206e6f7420746f6b656e206f776e6560008201527f72206f7220617070726f76656400000000000000000000000000000000000000602082015250565b60006142a5602d836135c0565b91506142b082614249565b604082019050919050565b600060208201905081810360008301526142d481614298565b9050919050565b7f455243373231456e756d657261626c653a206f776e657220696e646578206f7560008201527f74206f6620626f756e6473000000000000000000000000000000000000000000602082015250565b6000614337602b836135c0565b9150614342826142db565b604082019050919050565b600060208201905081810360008301526143668161432a565b9050919050565b7f4e487b7100000000000000000000000000000000000000000000000000000000600052603260045260246000fd5b7f4e487b7100000000000000000000000000000000000000000000000000000000600052601160045260246000fd5b60006143d682613670565b91507fffffffffffffffffffffffffffffffffffffffffffffffffffffffffffffffff8214156144095761440861439c565b5b600182019050919050565b600081905092915050565b600061442a826135b5565b6144348185614414565b93506144448185602086016135d1565b80840191505092915050565b600061445c828461441f565b915081905092915050565b7f496e7661696c6964207265717565737420666f722074686973206d617463684960008201527f6400000000000000000000000000000000000000000000000000000000000000602082015250565b60006144c36021836135c0565b91506144ce82614467565b604082019050919050565b600060208201905081810360008301526144f2816144b6565b9050919050565b7f6f6e6c79206d617463682063726561746f72207c7c206a6f696e6572207c7c2060008201527f61646d696e000000000000000000000000000000000000000000000000000000602082015250565b60006145556025836135c0565b9150614560826144f9565b604082019050919050565b6000602082019050818103600083015261458481614548565b9050919050565b600061459682613670565b91506145a183613670565b9250817fffffffffffffffffffffffffffffffffffffffffffffffffffffffffffffffff04831182151516156145da576145d961439c565b5b828202905092915050565b60006040820190506145fa6000830185613fbc565b818103602083015261460c8184613615565b90509392505050565b7f455243373231456e756d657261626c653a20676c6f62616c20696e646578206f60008201527f7574206f6620626f756e64730000000000000000000000000000000000000000602082015250565b6000614671602c836135c0565b915061467c82614615565b604082019050919050565b600060208201905081810360008301526146a081614664565b9050919050565b7f416c7265616479206d617463682063726561746564207769746820746869732060008201527f6d61746863682069640000000000000000000000000000000000000000000000602082015250565b60006147036029836135c0565b915061470e826146a7565b604082019050919050565b60006020820190508181036000830152614732816146f6565b9050919050565b7f73656e642066756c6c207374616b6520616d6f756e7400000000000000000000600082015250565b600061476f6016836135c0565b915061477a82614739565b602082019050919050565b6000602082019050818103600083015261479e81614762565b9050919050565b7f4552433732313a20696e76616c696420746f6b656e2049440000000000000000600082015250565b60006147db6018836135c0565b91506147e6826147a5565b602082019050919050565b6000602082019050818103600083015261480a816147ce565b9050919050565b7f4552433732313a2061646472657373207a65726f206973206e6f74206120766160008201527f6c6964206f776e65720000000000000000000000000000000000000000000000602082015250565b600061486d6029836135c0565b915061487882614811565b604082019050919050565b6000602082019050818103600083015261489c81614860565b9050919050565b7f4f776e61626c653a206e6577206f776e657220697320746865207a65726f206160008201527f6464726573730000000000000000000000000000000000000000000000000000602082015250565b60006148ff6026836135c0565b915061490a826148a3565b604082019050919050565b6000602082019050818103600083015261492e816148f2565b9050919050565b7f4552433732313a207472616e736665722066726f6d20696e636f72726563742060008201527f6f776e6572000000000000000000000000000000000000000000000000000000602082015250565b60006149916025836135c0565b915061499c82614935565b604082019050919050565b600060208201905081810360008301526149c081614984565b9050919050565b7f4552433732313a207472616e7366657220746f20746865207a65726f2061646460008201527f7265737300000000000000000000000000000000000000000000000000000000602082015250565b6000614a236024836135c0565b9150614a2e826149c7565b604082019050919050565b60006020820190508181036000830152614a5281614a16565b9050919050565b600081905092915050565b50565b6000614a74600083614a59565b9150614a7f82614a64565b600082019050919050565b6000614a9582614a67565b9150819050919050565b7f73656e64696e67206d6f6e6579206661696c6564000000000000000000000000600082015250565b6000614ad56014836135c0565b9150614ae082614a9f565b602082019050919050565b60006020820190508181036000830152614b0481614ac8565b9050919050565b6000614b1682613670565b9150614b2183613670565b9250827fffffffffffffffffffffffffffffffffffffffffffffffffffffffffffffffff03821115614b5657614b5561439c565b5b828201905092915050565b7f4f776e61626c653a2063616c6c6572206973206e6f7420746865206f776e6572600082015250565b6000614b976020836135c0565b9150614ba282614b61565b602082019050919050565b60006020820190508181036000830152614bc681614b8a565b9050919050565b7f4552433732313a20617070726f766520746f2063616c6c657200000000000000600082015250565b6000614c036019836135c0565b9150614c0e82614bcd565b602082019050919050565b60006020820190508181036000830152614c3281614bf6565b9050919050565b7f4552433732313a207472616e7366657220746f206e6f6e20455243373231526560008201527f63656976657220696d706c656d656e7465720000000000000000000000000000602082015250565b6000614c956032836135c0565b9150614ca082614c39565b604082019050919050565b60006020820190508181036000830152614cc481614c88565b9050919050565b6000614cd7828561441f565b9150614ce3828461441f565b91508190509392505050565b7f5265656e7472616e637947756172643a207265656e7472616e742063616c6c00600082015250565b6000614d25601f836135c0565b9150614d3082614cef565b602082019050919050565b60006020820190508181036000830152614d5481614d18565b9050919050565b7f4552433732313a206d696e7420746f20746865207a65726f2061646472657373600082015250565b6000614d916020836135c0565b9150614d9c82614d5b565b602082019050919050565b60006020820190508181036000830152614dc081614d84565b9050919050565b7f4552433732313a20746f6b656e20616c7265616479206d696e74656400000000600082015250565b6000614dfd601c836135c0565b9150614e0882614dc7565b602082019050919050565b60006020820190508181036000830152614e2c81614df0565b9050919050565b7f45524337323155524953746f726167653a2055524920736574206f66206e6f6e60008201527f6578697374656e7420746f6b656e000000000000000000000000000000000000602082015250565b6000614e8f602e836135c0565b9150614e9a82614e33565b604082019050919050565b60006020820190508181036000830152614ebe81614e82565b9050919050565b600081519050919050565b600082825260208201905092915050565b6000614eec82614ec5565b614ef68185614ed0565b9350614f068185602086016135d1565b614f0f81613604565b840191505092915050565b6000608082019050614f2f6000830187613705565b614f3c6020830186613705565b614f49604083018561379b565b8181036060830152614f5b8184614ee1565b905095945050505050565b600081519050614f7581613526565b92915050565b600060208284031215614f9157614f906134f0565b5b6000614f9f84828501614f66565b91505092915050565b7f455243373231456e756d657261626c653a20636f6e736563757469766520747260008201527f616e7366657273206e6f7420737570706f727465640000000000000000000000602082015250565b60006150046035836135c0565b915061500f82614fa8565b604082019050919050565b6000602082019050818103600083015261503381614ff7565b9050919050565b7f4e487b7100000000000000000000000000000000000000000000000000000000600052601260045260246000fd5b600061507482613670565b915061507f83613670565b9250828210156150925761509161439c565b5b828203905092915050565b7f4e487b7100000000000000000000000000000000000000000000000000000000600052603160045260246000fdfea26469706673582212205b48bbe86743021349e9b6388c45a2a46d9330be271c62c3c66331a83730530064736f6c634300080c0033",
  "linkReferences": {},
  "deployedLinkReferences": {}
}